{
  "transactions": [
    {
      "hash": "0x807735195986ccd9cb3320b31ae3d9f1060362f78fc5bdb4f7effe172898b3fd",
      "transactionType": "CALL",
      "contractName": "ProxyBase",
      "contractAddress": "0xcb513db80c6c76593770fc4a1827d5ab8186b0cd",
      "function": "changeImplementation(address,bytes)",
      "arguments": [
        "0x2fFA55eB059728d43628BF98d373F0A2843D7f7A",
        "0x"
      ],
      "transaction": {
        "from": "0xabd10f0a61270d6977c5bfd9d4ec74d6d3bc96ab",
        "to": "0xcb513db80c6c76593770fc4a1827d5ab8186b0cd",
        "gas": "0xb69d",
        "value": "0x0",
        "input": "0x311241710000000000000000000000002ffa55eb059728d43628bf98d373f0a2843d7f7a00000000000000000000000000000000000000000000000000000000000000400000000000000000000000000000000000000000000000000000000000000000",
        "nonce": "0x17",
        "chainId": "0x2105"
      },
      "additionalContracts": [],
      "isFixedGasLimit": false
    }
  ],
  "receipts": [
    {
      "status": "0x1",
      "cumulativeGasUsed": "0x2757204",
      "logs": [
        {
          "address": "0xcb513db80c6c76593770fc4a1827d5ab8186b0cd",
          "topics": [
            "0xbc7cd75a20ee27fd9adebab32041f755214dbc6bffa90cc0225b39da2e5c2d3b",
            "0x0000000000000000000000002ffa55eb059728d43628bf98d373f0a2843d7f7a"
          ],
          "data": "0x",
          "blockHash": "0xff0c3fb20ead0ea52f2c89524428b246ca5f91c5060a836f305cdefeee9f93bd",
          "blockNumber": "0x1f165fe",
          "blockTimestamp": "0x686d28df",
          "transactionHash": "0x807735195986ccd9cb3320b31ae3d9f1060362f78fc5bdb4f7effe172898b3fd",
          "transactionIndex": "0xab",
          "logIndex": "0x239",
          "removed": false
        }
      ],
      "logsBloom": "0x00000010000000000000000000000200400000000000000000200000000000000000000000000000000000000000000000000000000000000000000000000000000000000000000000000000000002000000000000000000000000000000000000000000000000000000000000000000000000000000000000000000000000000000000000000000000000000000000000000000000100000000000000000000000000000000000000000000000000000000000000000000000000000000000000000420000000000000000000000000000000000000000000000000000000000000000000000000000000000001000000000000000000000000000000000000",
      "type": "0x2",
      "transactionHash": "0x807735195986ccd9cb3320b31ae3d9f1060362f78fc5bdb4f7effe172898b3fd",
      "transactionIndex": "0xab",
      "blockHash": "0xff0c3fb20ead0ea52f2c89524428b246ca5f91c5060a836f305cdefeee9f93bd",
      "blockNumber": "0x1f165fe",
      "gasUsed": "0x8436",
      "effectiveGasPrice": "0x49a823",
      "from": "0xabd10f0a61270d6977c5bfd9d4ec74d6d3bc96ab",
      "to": "0xcb513db80c6c76593770fc4a1827d5ab8186b0cd",
      "contractAddress": null,
      "l1BaseFeeScalar": "0x8dd",
      "l1BlobBaseFee": "0x1",
      "l1BlobBaseFeeScalar": "0x101c12",
      "l1Fee": "0x19d12076d",
      "l1GasPrice": "0x71c7ed66",
      "l1GasUsed": "0x640"
    }
  ],
  "libraries": [],
  "pending": [],
  "returns": {},
  "timestamp": 1751984353,
  "chain": 8453,
  "commit": "2c62806"
}