{
  "transactions": [
    {
      "hash": "0x3a5d72aa4f40f59c688d2e9457ad4935f137d17e8ac16d00486fb5715a0b8a8e",
      "transactionType": "CALL",
      "contractName": "ProxyBase",
      "contractAddress": "0xcb513db80c6c76593770fc4a1827d5ab8186b0cd",
      "function": "changeImplementation(address,bytes)",
      "arguments": [
        "0x932F1B9623C5C55B84C11379e2D59Bdabc386B1c",
        "0x2afbbedb0000000000000000000000000000000000000000000000000000000000000020000000000000000000000000000000000000000000000000000000000000000200000000000000000000000000000000000000000000000000000000000000400000000000000000000000000000000000000000000000000000000000000001000000000000000000000000d4f3ba2fe4183c32a498ad1ecf9fc55308fcc029"
      ],
      "transaction": {
        "from": "0xabd10f0a61270d6977c5bfd9d4ec74d6d3bc96ab",
        "to": "0xcb513db80c6c76593770fc4a1827d5ab8186b0cd",
        "gas": "0x15c72",
        "value": "0x0",
        "input": "0x31124171000000000000000000000000932f1b9623c5c55b84c11379e2d59bdabc386b1c000000000000000000000000000000000000000000000000000000000000004000000000000000000000000000000000000000000000000000000000000000a42afbbedb0000000000000000000000000000000000000000000000000000000000000020000000000000000000000000000000000000000000000000000000000000000200000000000000000000000000000000000000000000000000000000000000400000000000000000000000000000000000000000000000000000000000000001000000000000000000000000d4f3ba2fe4183c32a498ad1ecf9fc55308fcc02900000000000000000000000000000000000000000000000000000000",
        "nonce": "0x25",
        "chainId": "0x2105"
      },
      "additionalContracts": [],
      "isFixedGasLimit": false
    }
  ],
  "receipts": [
    {
      "status": "0x1",
      "cumulativeGasUsed": "0x78084b",
      "logs": [
        {
          "address": "0xcb513db80c6c76593770fc4a1827d5ab8186b0cd",
          "topics": [
            "0xbc7cd75a20ee27fd9adebab32041f755214dbc6bffa90cc0225b39da2e5c2d3b",
            "0x000000000000000000000000932f1b9623c5c55b84c11379e2d59bdabc386b1c"
          ],
          "data": "0x",
          "blockHash": "0xe168834c1ebf77017bb43959aa6e924102384a730504ba5152c77150b737d440",
          "blockNumber": "0x228c26b",
          "blockTimestamp": "0x68dbe1b9",
          "transactionHash": "0x3a5d72aa4f40f59c688d2e9457ad4935f137d17e8ac16d00486fb5715a0b8a8e",
          "transactionIndex": "0x33",
          "logIndex": "0x71",
          "removed": false
        },
        {
          "address": "0x833589fcd6edb6e08f4c7c32d4f71b54bda02913",
          "topics": [
            "0x8c5be1e5ebec7d5bd14f71427d1e84f3dd0314c0f7b2291e5b200ac8c7c3b925",
            "0x000000000000000000000000cb513db80c6c76593770fc4a1827d5ab8186b0cd",
            "0x00000000000000000000000048b9aacc350b20147001f88821d31731ba4c30ed"
          ],
          "data": "0x0000000000000000000000000000000000000000000000000000000000000000",
          "blockHash": "0xe168834c1ebf77017bb43959aa6e924102384a730504ba5152c77150b737d440",
          "blockNumber": "0x228c26b",
          "blockTimestamp": "0x68dbe1b9",
          "transactionHash": "0x3a5d72aa4f40f59c688d2e9457ad4935f137d17e8ac16d00486fb5715a0b8a8e",
          "transactionIndex": "0x33",
          "logIndex": "0x72",
          "removed": false
        },
        {
          "address": "0x833589fcd6edb6e08f4c7c32d4f71b54bda02913",
          "topics": [
            "0x8c5be1e5ebec7d5bd14f71427d1e84f3dd0314c0f7b2291e5b200ac8c7c3b925",
            "0x000000000000000000000000cb513db80c6c76593770fc4a1827d5ab8186b0cd",
            "0x000000000000000000000000d4f3ba2fe4183c32a498ad1ecf9fc55308fcc029"
          ],
          "data": "0x0000000000000000000000000000000000000000000000000000000000000000",
          "blockHash": "0xe168834c1ebf77017bb43959aa6e924102384a730504ba5152c77150b737d440",
          "blockNumber": "0x228c26b",
          "blockTimestamp": "0x68dbe1b9",
          "transactionHash": "0x3a5d72aa4f40f59c688d2e9457ad4935f137d17e8ac16d00486fb5715a0b8a8e",
          "transactionIndex": "0x33",
          "logIndex": "0x73",
          "removed": false
        },
        {
          "address": "0xcb513db80c6c76593770fc4a1827d5ab8186b0cd",
          "topics": [
            "0xc7f505b2f371ae2175ee4913f4499e1f2633a7b5936321eed1cdaeb6115181d2"
          ],
          "data": "0x0000000000000000000000000000000000000000000000000000000000000002",
          "blockHash": "0xe168834c1ebf77017bb43959aa6e924102384a730504ba5152c77150b737d440",
          "blockNumber": "0x228c26b",
          "blockTimestamp": "0x68dbe1b9",
          "transactionHash": "0x3a5d72aa4f40f59c688d2e9457ad4935f137d17e8ac16d00486fb5715a0b8a8e",
          "transactionIndex": "0x33",
          "logIndex": "0x74",
          "removed": false
        }
      ],
      "logsBloom": "0x00000000000000080000000000000000400000000000000000200000000000000000000000000000000000000000100000000000000000000000000000201000000000000000000000000000000002000000000000080000000000000000000000800000000000000000000000000000041000000000000000000000000000004000000000000000080800000000000000000000000181000000000000000000020000000000000000000000000080000000000000000000000000000000000000000020000020000000000000000000800000000004000000000000000000000010000000000001000000000001000000000000000000000000000000000800",
      "type": "0x2",
      "transactionHash": "0x3a5d72aa4f40f59c688d2e9457ad4935f137d17e8ac16d00486fb5715a0b8a8e",
      "transactionIndex": "0x33",
      "blockHash": "0xe168834c1ebf77017bb43959aa6e924102384a730504ba5152c77150b737d440",
      "blockNumber": "0x228c26b",
      "gasUsed": "0xfc45",
      "effectiveGasPrice": "0xd81ddc",
      "from": "0xabd10f0a61270d6977c5bfd9d4ec74d6d3bc96ab",
      "to": "0xcb513db80c6c76593770fc4a1827d5ab8186b0cd",
      "contractAddress": null,
      "l1BaseFeeScalar": "0x8dd",
      "l1BlobBaseFee": "0x1",
      "l1BlobBaseFeeScalar": "0x101c12",
      "l1Fee": "0x1b5bfd455",
      "l1GasPrice": "0x52ccc11d",
      "l1GasUsed": "0x91a"
    }
  ],
  "libraries": [],
  "pending": [],
  "returns": {},
  "timestamp": 1759240631628,
  "chain": 8453,
  "commit": "5e16dc2"
}