{
  "transactions": [
    {
      "hash": "0x783e601f21fc6ea562105de3f13b430c4eb6bceaad246fac6aabb06b0965f608",
      "transactionType": "CALL",
      "contractName": "ProxyBase",
      "contractAddress": "0xcb513db80c6c76593770fc4a1827d5ab8186b0cd",
      "function": "changeImplementation(address,bytes)",
      "arguments": [
        "0xaf5F8E58e6a26cEF6fE6EBBA562fc4d210d72BbD",
        "0x"
      ],
      "transaction": {
        "from": "0xabd10f0a61270d6977c5bfd9d4ec74d6d3bc96ab",
        "to": "0xcb513db80c6c76593770fc4a1827d5ab8186b0cd",
        "gas": "0xb69d",
        "value": "0x0",
        "input": "0x31124171000000000000000000000000af5f8e58e6a26cef6fe6ebba562fc4d210d72bbd00000000000000000000000000000000000000000000000000000000000000400000000000000000000000000000000000000000000000000000000000000000",
        "nonce": "0x20",
        "chainId": "0x2105"
      },
      "additionalContracts": [],
      "isFixedGasLimit": false
    }
  ],
  "receipts": [
    {
      "status": "0x1",
      "cumulativeGasUsed": "0x31a90f3",
      "logs": [
        {
          "address": "0xcb513db80c6c76593770fc4a1827d5ab8186b0cd",
          "topics": [
            "0xbc7cd75a20ee27fd9adebab32041f755214dbc6bffa90cc0225b39da2e5c2d3b",
            "0x000000000000000000000000af5f8e58e6a26cef6fe6ebba562fc4d210d72bbd"
          ],
          "data": "0x",
          "blockHash": "0x2e063f60c55a9b01ead664ff952c3e56cfd5e543fb675908a06272f6c30cb38a",
          "blockNumber": "0x1fbf26f",
          "blockTimestamp": "0x688241c1",
          "transactionHash": "0x783e601f21fc6ea562105de3f13b430c4eb6bceaad246fac6aabb06b0965f608",
          "transactionIndex": "0x73",
          "logIndex": "0x921",
          "removed": false
        }
      ],
      "logsBloom": "0x00000000000000000000000000000000400000000000000000200000010000000000000000000000000000000000000000000000000000000000000000000000000000000000000000000000000002000000000000000000000000000000000000000000000000000000000000000000000000000000000000000000000000000000000000000000000000000000000000000000000100000000000000000000000000000000000000000000000000000000000000000000000000000000000000000020000000000000000000000000000000000000000000000000000000002000000000000000000000000001000000000000000000000000000200000000",
      "type": "0x2",
      "transactionHash": "0x783e601f21fc6ea562105de3f13b430c4eb6bceaad246fac6aabb06b0965f608",
      "transactionIndex": "0x73",
      "blockHash": "0x2e063f60c55a9b01ead664ff952c3e56cfd5e543fb675908a06272f6c30cb38a",
      "blockNumber": "0x1fbf26f",
      "gasUsed": "0x8436",
      "effectiveGasPrice": "0xe112e4",
      "from": "0xabd10f0a61270d6977c5bfd9d4ec74d6d3bc96ab",
      "to": "0xcb513db80c6c76593770fc4a1827d5ab8186b0cd",
      "contractAddress": null,
      "l1BaseFeeScalar": "0x8dd",
      "l1BlobBaseFee": "0x1",
      "l1BlobBaseFeeScalar": "0x101c12",
      "l1Fee": "0x103b3b145",
      "l1GasPrice": "0x47890c63",
      "l1GasUsed": "0x640"
    }
  ],
  "libraries": [],
  "pending": [],
  "returns": {},
  "timestamp": 1753366976,
  "chain": 8453,
  "commit": "8bee18a"
}