{
  "transactions": [
    {
      "hash": "0x2db5616dca2c86a72da3530e79ff2534e47de42288006161133238cc24891101",
      "transactionType": "CALL",
      "contractName": null,
      "contractAddress": "0x2deedce96f1b40301b7ca1f8877286f73de87cf3",
      "function": "changeImplementation(address,bytes)",
      "arguments": [
        "0xaf44a202FeD9E08029C313AD0Ee50CB9DEc156fC",
        "0x"
      ],
      "transaction": {
        "from": "0xfab1e0f009a77a60dc551c2e768dfb3fadc40827",
        "to": "0x2deedce96f1b40301b7ca1f8877286f73de87cf3",
        "gas": "0xadb1",
        "value": "0x0",
        "input": "0x31124171000000000000000000000000af44a202fed9e08029c313ad0ee50cb9dec156fc00000000000000000000000000000000000000000000000000000000000000400000000000000000000000000000000000000000000000000000000000000000",
        "nonce": "0x137",
        "chainId": "0x66eee"
      },
      "additionalContracts": [],
      "isFixedGasLimit": false
    }
  ],
  "receipts": [
    {
      "status": "0x1",
      "cumulativeGasUsed": "0x7455b",
      "logs": [
        {
          "address": "0x2deedce96f1b40301b7ca1f8877286f73de87cf3",
          "topics": [
            "0xbc7cd75a20ee27fd9adebab32041f755214dbc6bffa90cc0225b39da2e5c2d3b",
            "0x000000000000000000000000af44a202fed9e08029c313ad0ee50cb9dec156fc"
          ],
          "data": "0x",
          "blockHash": "0xea176be2b304e7b7a3e1d0d8540172cfee6f2cad52ecd1fab06be97e5ea76b60",
          "blockNumber": "0xbcd68da",
          "transactionHash": "0x2db5616dca2c86a72da3530e79ff2534e47de42288006161133238cc24891101",
          "transactionIndex": "0x5",
          "logIndex": "0x9",
          "removed": false
        }
      ],
      "logsBloom": "0x00000000004000000000000000000000400000000000000000000000000008000000000000000000000000000000000000000004000000000000000000000000000000000000000000000000000002000000000000000000000000000000000000000000000000000000000000000000000000000000000000000000000000000000000800000000000000000000000000000000000000000000000000000000000000000000000000000000000000000000000000000000000000000000000000000020000000000000000000000000000000000000000000000000000000000000000000000002000000000000000000000000000000000000000000000002",
      "type": "0x2",
      "transactionHash": "0x2db5616dca2c86a72da3530e79ff2534e47de42288006161133238cc24891101",
      "transactionIndex": "0x5",
      "blockHash": "0xea176be2b304e7b7a3e1d0d8540172cfee6f2cad52ecd1fab06be97e5ea76b60",
      "blockNumber": "0xbcd68da",
      "gasUsed": "0x8436",
      "effectiveGasPrice": "0x5f5e100",
      "from": "0xfab1e0f009a77a60dc551c2e768dfb3fadc40827",
      "to": "0x2deedce96f1b40301b7ca1f8877286f73de87cf3",
      "contractAddress": null,
      "gasUsedForL1": "0x0",
      "l1BlockNumber": "0x8d90e5",
      "timeboosted": false
    }
  ],
  "libraries": [],
  "pending": [],
  "returns": {},
  "timestamp": 1758813220146,
  "chain": 421614,
  "commit": "24ed502"
}