{
  "transactions": [
    {
      "hash": "0x7a8466e72b6d3310d6e9e331a393cf4a071c7c8a852b0270583225425a2409a8",
      "transactionType": "CALL",
      "contractName": null,
      "contractAddress": "0x2deedce96f1b40301b7ca1f8877286f73de87cf3",
      "function": "changeImplementation(address,bytes)",
      "arguments": [
        "0xc105844ee281A68A29d171195f2A40FF1f9443e6",
        "0x2afbbedb0000000000000000000000000000000000000000000000000000000000000020000000000000000000000000000000000000000000000000000000000000000200000000000000000000000000000000000000000000000000000000000000400000000000000000000000000000000000000000000000000000000000000001000000000000000000000000fab1e0f009a77a60dc551c2e768dfb3fadc40827"
      ],
      "transaction": {
        "from": "0xfab1e0f009a77a60dc551c2e768dfb3fadc40827",
        "to": "0x2deedce96f1b40301b7ca1f8877286f73de87cf3",
        "gas": "0x20853",
        "value": "0x0",
        "input": "0x31124171000000000000000000000000c105844ee281a68a29d171195f2a40ff1f9443e6000000000000000000000000000000000000000000000000000000000000004000000000000000000000000000000000000000000000000000000000000000a42afbbedb0000000000000000000000000000000000000000000000000000000000000020000000000000000000000000000000000000000000000000000000000000000200000000000000000000000000000000000000000000000000000000000000400000000000000000000000000000000000000000000000000000000000000001000000000000000000000000fab1e0f009a77a60dc551c2e768dfb3fadc4082700000000000000000000000000000000000000000000000000000000",
        "nonce": "0x130",
        "chainId": "0x66eee"
      },
      "additionalContracts": [],
      "isFixedGasLimit": false
    }
  ],
  "receipts": [
    {
      "status": "0x1",
      "cumulativeGasUsed": "0x55ff8",
      "logs": [
        {
          "address": "0x2deedce96f1b40301b7ca1f8877286f73de87cf3",
          "topics": [
            "0xbc7cd75a20ee27fd9adebab32041f755214dbc6bffa90cc0225b39da2e5c2d3b",
            "0x000000000000000000000000c105844ee281a68a29d171195f2a40ff1f9443e6"
          ],
          "data": "0x",
          "blockHash": "0xbfec73aa36d130379ef11ced7dda54097c5d5e94c58d253c869564ec6b63ecde",
          "blockNumber": "0xbc8ad19",
          "transactionHash": "0x7a8466e72b6d3310d6e9e331a393cf4a071c7c8a852b0270583225425a2409a8",
          "transactionIndex": "0x2",
          "logIndex": "0x6",
          "removed": false
        },
        {
          "address": "0x75faf114eafb1bdbe2f0316df893fd58ce46aa4d",
          "topics": [
            "0x8c5be1e5ebec7d5bd14f71427d1e84f3dd0314c0f7b2291e5b200ac8c7c3b925",
            "0x0000000000000000000000002deedce96f1b40301b7ca1f8877286f73de87cf3",
            "0x000000000000000000000000bfc91d59fdaa134a4ed45f7b584caf96d7792eff"
          ],
          "data": "0x0000000000000000000000000000000000000000000000000000000000000000",
          "blockHash": "0xbfec73aa36d130379ef11ced7dda54097c5d5e94c58d253c869564ec6b63ecde",
          "blockNumber": "0xbc8ad19",
          "transactionHash": "0x7a8466e72b6d3310d6e9e331a393cf4a071c7c8a852b0270583225425a2409a8",
          "transactionIndex": "0x2",
          "logIndex": "0x7",
          "removed": false
        },
        {
          "address": "0x75faf114eafb1bdbe2f0316df893fd58ce46aa4d",
          "topics": [
            "0x8c5be1e5ebec7d5bd14f71427d1e84f3dd0314c0f7b2291e5b200ac8c7c3b925",
            "0x0000000000000000000000002deedce96f1b40301b7ca1f8877286f73de87cf3",
            "0x0000000000000000000000000da86dc3f9b71f84a0e97b0e2291e50b7a5df10f"
          ],
          "data": "0x0000000000000000000000000000000000000000000000000000000000000000",
          "blockHash": "0xbfec73aa36d130379ef11ced7dda54097c5d5e94c58d253c869564ec6b63ecde",
          "blockNumber": "0xbc8ad19",
          "transactionHash": "0x7a8466e72b6d3310d6e9e331a393cf4a071c7c8a852b0270583225425a2409a8",
          "transactionIndex": "0x2",
          "logIndex": "0x8",
          "removed": false
        },
        {
          "address": "0x2deedce96f1b40301b7ca1f8877286f73de87cf3",
          "topics": [
            "0x6fff6b51fc7f6641dd270e7981bc5cfcdf76fef18faa559aef714e9934c38743",
            "0x000000000000000000000000fab1e0f009a77a60dc551c2e768dfb3fadc40827"
          ],
          "data": "0x0000000000000000000000000000000000000000000000000000000000000001",
          "blockHash": "0xbfec73aa36d130379ef11ced7dda54097c5d5e94c58d253c869564ec6b63ecde",
          "blockNumber": "0xbc8ad19",
          "transactionHash": "0x7a8466e72b6d3310d6e9e331a393cf4a071c7c8a852b0270583225425a2409a8",
          "transactionIndex": "0x2",
          "logIndex": "0x9",
          "removed": false
        },
        {
          "address": "0x2deedce96f1b40301b7ca1f8877286f73de87cf3",
          "topics": [
            "0xc7f505b2f371ae2175ee4913f4499e1f2633a7b5936321eed1cdaeb6115181d2"
          ],
          "data": "0x0000000000000000000000000000000000000000000000000000000000000002",
          "blockHash": "0xbfec73aa36d130379ef11ced7dda54097c5d5e94c58d253c869564ec6b63ecde",
          "blockNumber": "0xbc8ad19",
          "transactionHash": "0x7a8466e72b6d3310d6e9e331a393cf4a071c7c8a852b0270583225425a2409a8",
          "transactionIndex": "0x2",
          "logIndex": "0xa",
          "removed": false
        }
      ],
      "logsBloom": "0x80100080004000000000000000000000400000000000000000000000000000000000000000000000000400800000000000000000000000000000000000200004800000000000000000000000000402000000000000040000000000000000000000000000004000000020000000000000000000000000000000000000000000002000000800000000004800000000000000000400000080000000000000000000020000000000000000000000000000000000000000000000000000000000000000000020000000000000000000000000000000000084000800000000000000001010000800000000000000000000000000000000000000000100000000000006",
      "type": "0x2",
      "transactionHash": "0x7a8466e72b6d3310d6e9e331a393cf4a071c7c8a852b0270583225425a2409a8",
      "transactionIndex": "0x2",
      "blockHash": "0xbfec73aa36d130379ef11ced7dda54097c5d5e94c58d253c869564ec6b63ecde",
      "blockNumber": "0xbc8ad19",
      "gasUsed": "0x16204",
      "effectiveGasPrice": "0x5f5e100",
      "from": "0xfab1e0f009a77a60dc551c2e768dfb3fadc40827",
      "to": "0x2deedce96f1b40301b7ca1f8877286f73de87cf3",
      "contractAddress": null,
      "gasUsedForL1": "0x0",
      "l1BlockNumber": "0x8d77b8",
      "timeboosted": false
    }
  ],
  "libraries": [],
  "pending": [],
  "returns": {},
  "timestamp": 1758735181128,
  "chain": 421614,
  "commit": "f6b0aeb"
}