{
  "transactions": [
    {
      "hash": "0x393d3dc280eff257fdfa8751f30a7cd9a66399274f18be95e64a711a51e54545",
      "transactionType": "CALL",
      "contractName": null,
      "contractAddress": "0x2deedce96f1b40301b7ca1f8877286f73de87cf3",
      "function": "changeImplementation(address,bytes)",
      "arguments": [
        "0x3695E1C3e362D86CCA3520Abc335eFfe58F33423",
        "0x"
      ],
      "transaction": {
        "from": "0xfab1e0f009a77a60dc551c2e768dfb3fadc40827",
        "to": "0x2deedce96f1b40301b7ca1f8877286f73de87cf3",
        "gas": "0x10339",
        "value": "0x0",
        "input": "0x311241710000000000000000000000003695e1c3e362d86cca3520abc335effe58f3342300000000000000000000000000000000000000000000000000000000000000400000000000000000000000000000000000000000000000000000000000000000",
        "nonce": "0xf1",
        "chainId": "0x66eee"
      },
      "additionalContracts": [],
      "isFixedGasLimit": false
    }
  ],
  "receipts": [
    {
      "status": "0x1",
      "cumulativeGasUsed": "0xa4537",
      "logs": [
        {
          "address": "0x2deedce96f1b40301b7ca1f8877286f73de87cf3",
          "topics": [
            "0xbc7cd75a20ee27fd9adebab32041f755214dbc6bffa90cc0225b39da2e5c2d3b",
            "0x0000000000000000000000003695e1c3e362d86cca3520abc335effe58f33423"
          ],
          "data": "0x",
          "blockHash": "0xc59542d89afccaca97aa83f5deb09ae1dab289b2210f0c0ec65ed841b9b3ee95",
          "blockNumber": "0xa1b0f8e",
          "transactionHash": "0x393d3dc280eff257fdfa8751f30a7cd9a66399274f18be95e64a711a51e54545",
          "transactionIndex": "0x6",
          "logIndex": "0x14",
          "removed": false
        }
      ],
      "logsBloom": "0x00000000004000000000000000000000400000000000000000000000000000000000000000000000000000000000000000000000000000000000000000000000080000000000000000000000000002000000000000000000000000000000000000000000000000000000000000000000000000000000000000000000000000000000000800004000000000000000000000000000000000000000000000000000000000000000000000000000000000000000000000000000000000000000000000000020000000000000000000000000000000000000000000000000000000000000000000000008000000000000000000000000000000000000000000000002",
      "type": "0x2",
      "transactionHash": "0x393d3dc280eff257fdfa8751f30a7cd9a66399274f18be95e64a711a51e54545",
      "transactionIndex": "0x6",
      "blockHash": "0xc59542d89afccaca97aa83f5deb09ae1dab289b2210f0c0ec65ed841b9b3ee95",
      "blockNumber": "0xa1b0f8e",
      "gasUsed": "0xb9d0",
      "effectiveGasPrice": "0x5f5e100",
      "from": "0xfab1e0f009a77a60dc551c2e768dfb3fadc40827",
      "to": "0x2deedce96f1b40301b7ca1f8877286f73de87cf3",
      "contractAddress": null,
      "gasUsedForL1": "0x359a",
      "l1BlockNumber": "0x846a04",
      "timeboosted": false
    }
  ],
  "libraries": [],
  "pending": [],
  "returns": {},
  "timestamp": 1751481214,
  "chain": 421614,
  "commit": "e700925"
}