{
  "transactions": [
    {
      "hash": "0xf749fea8b819e50b9fcef4e58a1bc9fd255f7363696768cf1ba5bd088b7b11f6",
      "transactionType": "CALL",
      "contractName": "ProxyBase",
      "contractAddress": "0xcb513db80c6c76593770fc4a1827d5ab8186b0cd",
      "function": "changeImplementation(address,bytes)",
      "arguments": [
        "0xE65eEe518A897618cBEe25898f80200E7988c81e",
        "0x2afbbedb0000000000000000000000000000000000000000000000000000000000000020000000000000000000000000000000000000000000000000000000000000000200000000000000000000000000000000000000000000000000000000000000400000000000000000000000000000000000000000000000000000000000000000"
      ],
      "transaction": {
        "from": "0xabd10f0a61270d6977c5bfd9d4ec74d6d3bc96ab",
        "to": "0xcb513db80c6c76593770fc4a1827d5ab8186b0cd",
        "gas": "0x14d33",
        "value": "0x0",
        "input": "0x31124171000000000000000000000000e65eee518a897618cbee25898f80200e7988c81e000000000000000000000000000000000000000000000000000000000000004000000000000000000000000000000000000000000000000000000000000000842afbbedb000000000000000000000000000000000000000000000000000000000000002000000000000000000000000000000000000000000000000000000000000000020000000000000000000000000000000000000000000000000000000000000040000000000000000000000000000000000000000000000000000000000000000000000000000000000000000000000000000000000000000000000000",
        "nonce": "0x20",
        "chainId": "0x38"
      },
      "additionalContracts": [],
      "isFixedGasLimit": false
    }
  ],
  "receipts": [
    {
      "status": "0x1",
      "cumulativeGasUsed": "0x1096a00",
      "logs": [
        {
          "address": "0xcb513db80c6c76593770fc4a1827d5ab8186b0cd",
          "topics": [
            "0xbc7cd75a20ee27fd9adebab32041f755214dbc6bffa90cc0225b39da2e5c2d3b",
            "0x000000000000000000000000e65eee518a897618cbee25898f80200e7988c81e"
          ],
          "data": "0x",
          "blockHash": "0x5dacd03af36e9821d5bc8e5c51757b3c0a1b877bd56ba35c3b416a9517102406",
          "blockNumber": "0x3c1223c",
          "transactionHash": "0xf749fea8b819e50b9fcef4e58a1bc9fd255f7363696768cf1ba5bd088b7b11f6",
          "transactionIndex": "0x6f",
          "logIndex": "0x226",
          "removed": false
        },
        {
          "address": "0x8ac76a51cc950d9822d68b83fe1ad97b32cd580d",
          "topics": [
            "0x8c5be1e5ebec7d5bd14f71427d1e84f3dd0314c0f7b2291e5b200ac8c7c3b925",
            "0x000000000000000000000000cb513db80c6c76593770fc4a1827d5ab8186b0cd",
            "0x0000000000000000000000006807dc923806fe8fd134338eabca509979a7e0cb"
          ],
          "data": "0x0000000000000000000000000000000000000000000000000000000000000000",
          "blockHash": "0x5dacd03af36e9821d5bc8e5c51757b3c0a1b877bd56ba35c3b416a9517102406",
          "blockNumber": "0x3c1223c",
          "transactionHash": "0xf749fea8b819e50b9fcef4e58a1bc9fd255f7363696768cf1ba5bd088b7b11f6",
          "transactionIndex": "0x6f",
          "logIndex": "0x227",
          "removed": false
        },
        {
          "address": "0x8ac76a51cc950d9822d68b83fe1ad97b32cd580d",
          "topics": [
            "0x8c5be1e5ebec7d5bd14f71427d1e84f3dd0314c0f7b2291e5b200ac8c7c3b925",
            "0x000000000000000000000000cb513db80c6c76593770fc4a1827d5ab8186b0cd",
            "0x00000000000000000000000048b9aacc350b20147001f88821d31731ba4c30ed"
          ],
          "data": "0x0000000000000000000000000000000000000000000000000000000000000000",
          "blockHash": "0x5dacd03af36e9821d5bc8e5c51757b3c0a1b877bd56ba35c3b416a9517102406",
          "blockNumber": "0x3c1223c",
          "transactionHash": "0xf749fea8b819e50b9fcef4e58a1bc9fd255f7363696768cf1ba5bd088b7b11f6",
          "transactionIndex": "0x6f",
          "logIndex": "0x228",
          "removed": false
        },
        {
          "address": "0xcb513db80c6c76593770fc4a1827d5ab8186b0cd",
          "topics": [
            "0xc7f505b2f371ae2175ee4913f4499e1f2633a7b5936321eed1cdaeb6115181d2"
          ],
          "data": "0x0000000000000000000000000000000000000000000000000000000000000002",
          "blockHash": "0x5dacd03af36e9821d5bc8e5c51757b3c0a1b877bd56ba35c3b416a9517102406",
          "blockNumber": "0x3c1223c",
          "transactionHash": "0xf749fea8b819e50b9fcef4e58a1bc9fd255f7363696768cf1ba5bd088b7b11f6",
          "transactionIndex": "0x6f",
          "logIndex": "0x229",
          "removed": false
        }
      ],
      "logsBloom": "0x00000004000000000000000000000000400000000000000000200000000000000000000000000000000000000000000000000000000000000000000000200080000000000000000000000000000002000000000000000000000000000000000000000000000000000000000000000000040000000000000000000000000000000000000000000000080800000000008000000000000181000000000000000000020000000000000000000000080080000000000000000000000000000000000000000020000020000001000020000000000000000004000000000000000000000010800000104001000000000001000000000000000000000000000000000000",
      "type": "0x2",
      "transactionHash": "0xf749fea8b819e50b9fcef4e58a1bc9fd255f7363696768cf1ba5bd088b7b11f6",
      "transactionIndex": "0x6f",
      "blockHash": "0x5dacd03af36e9821d5bc8e5c51757b3c0a1b877bd56ba35c3b416a9517102406",
      "blockNumber": "0x3c1223c",
      "gasUsed": "0xf13c",
      "effectiveGasPrice": "0x5f5e100",
      "from": "0xabd10f0a61270d6977c5bfd9d4ec74d6d3bc96ab",
      "to": "0xcb513db80c6c76593770fc4a1827d5ab8186b0cd",
      "contractAddress": null
    }
  ],
  "libraries": [],
  "pending": [],
  "returns": {},
  "timestamp": 1759240707169,
  "chain": 56,
  "commit": "5e16dc2"
}