{
  "transactions": [
    {
      "hash": "0x4d601e7403ca9bfd512016e1278c940fe5003904fa0b3e926dba8f1559234655",
      "transactionType": "CALL",
      "contractName": "ProxyBase",
      "contractAddress": "0x1547e8603048137deff6fc029c1778e2889a0f83",
      "function": "changeImplementation(address,bytes)",
      "arguments": [
        "0x7E31763BCB704DaF1B54B55D84DF3E3eAd6dB2aF",
        "0x2afbbedb00000000000000000000000000000000000000000000000000000000000000200000000000000000000000000000000000000000000000000000000000000002000000000000000000000000000000000000000000000000000000000000004000000000000000000000000000000000000000000000000000000000000000010000000000000000000000001c60d7075b19c8107dee803272c9d085a0edf775"
      ],
      "transaction": {
        "from": "0xabd10f0a61270d6977c5bfd9d4ec74d6d3bc96ab",
        "to": "0x1547e8603048137deff6fc029c1778e2889a0f83",
        "gas": "0x15c72",
        "value": "0x0",
        "input": "0x311241710000000000000000000000007e31763bcb704daf1b54b55d84df3e3ead6db2af000000000000000000000000000000000000000000000000000000000000004000000000000000000000000000000000000000000000000000000000000000a42afbbedb00000000000000000000000000000000000000000000000000000000000000200000000000000000000000000000000000000000000000000000000000000002000000000000000000000000000000000000000000000000000000000000004000000000000000000000000000000000000000000000000000000000000000010000000000000000000000001c60d7075b19c8107dee803272c9d085a0edf77500000000000000000000000000000000000000000000000000000000",
        "nonce": "0x4c",
        "chainId": "0x89"
      },
      "additionalContracts": [],
      "isFixedGasLimit": false
    }
  ],
  "receipts": [
    {
      "status": "0x1",
      "cumulativeGasUsed": "0xcca857",
      "logs": [
        {
          "address": "0x1547e8603048137deff6fc029c1778e2889a0f83",
          "topics": [
            "0xbc7cd75a20ee27fd9adebab32041f755214dbc6bffa90cc0225b39da2e5c2d3b",
            "0x0000000000000000000000007e31763bcb704daf1b54b55d84df3e3ead6db2af"
          ],
          "data": "0x",
          "blockHash": "0x510045213dbd4172dc1ec10db4d036bd1d5bdd097506466b8d564126c1a22917",
          "blockNumber": "0x49848ed",
          "transactionHash": "0x4d601e7403ca9bfd512016e1278c940fe5003904fa0b3e926dba8f1559234655",
          "transactionIndex": "0x38",
          "logIndex": "0x1cf",
          "removed": false
        },
        {
          "address": "0x3c499c542cef5e3811e1192ce70d8cc03d5c3359",
          "topics": [
            "0x8c5be1e5ebec7d5bd14f71427d1e84f3dd0314c0f7b2291e5b200ac8c7c3b925",
            "0x0000000000000000000000001547e8603048137deff6fc029c1778e2889a0f83",
            "0x00000000000000000000000048b9aacc350b20147001f88821d31731ba4c30ed"
          ],
          "data": "0x0000000000000000000000000000000000000000000000000000000000000000",
          "blockHash": "0x510045213dbd4172dc1ec10db4d036bd1d5bdd097506466b8d564126c1a22917",
          "blockNumber": "0x49848ed",
          "transactionHash": "0x4d601e7403ca9bfd512016e1278c940fe5003904fa0b3e926dba8f1559234655",
          "transactionIndex": "0x38",
          "logIndex": "0x1d0",
          "removed": false
        },
        {
          "address": "0x3c499c542cef5e3811e1192ce70d8cc03d5c3359",
          "topics": [
            "0x8c5be1e5ebec7d5bd14f71427d1e84f3dd0314c0f7b2291e5b200ac8c7c3b925",
            "0x0000000000000000000000001547e8603048137deff6fc029c1778e2889a0f83",
            "0x0000000000000000000000001c60d7075b19c8107dee803272c9d085a0edf775"
          ],
          "data": "0x0000000000000000000000000000000000000000000000000000000000000000",
          "blockHash": "0x510045213dbd4172dc1ec10db4d036bd1d5bdd097506466b8d564126c1a22917",
          "blockNumber": "0x49848ed",
          "transactionHash": "0x4d601e7403ca9bfd512016e1278c940fe5003904fa0b3e926dba8f1559234655",
          "transactionIndex": "0x38",
          "logIndex": "0x1d1",
          "removed": false
        },
        {
          "address": "0x1547e8603048137deff6fc029c1778e2889a0f83",
          "topics": [
            "0xc7f505b2f371ae2175ee4913f4499e1f2633a7b5936321eed1cdaeb6115181d2"
          ],
          "data": "0x0000000000000000000000000000000000000000000000000000000000000002",
          "blockHash": "0x510045213dbd4172dc1ec10db4d036bd1d5bdd097506466b8d564126c1a22917",
          "blockNumber": "0x49848ed",
          "transactionHash": "0x4d601e7403ca9bfd512016e1278c940fe5003904fa0b3e926dba8f1559234655",
          "transactionIndex": "0x38",
          "logIndex": "0x1d2",
          "removed": false
        },
        {
          "address": "0x0000000000000000000000000000000000001010",
          "topics": [
            "0x4dfe1bbbcf077ddc3e01291eea2d5c70c2b422b415d95645b9adcfd678cb1d63",
            "0x0000000000000000000000000000000000000000000000000000000000001010",
            "0x000000000000000000000000abd10f0a61270d6977c5bfd9d4ec74d6d3bc96ab",
            "0x0000000000000000000000009ead03f7136fc6b4bdb0780b00a1c14ae5a8b6d0"
          ],
          "data": "0x00000000000000000000000000000000000000000000000000097eaa8fede0a8000000000000000000000000000000000000000000000000bb8147d01b570dc900000000000000000000000000000000000000000000044e6f357214e9aee6f4000000000000000000000000000000000000000000000000bb77c9258b692d2100000000000000000000000000000000000000000000044e6f3ef0bf799cc79c",
          "blockHash": "0x510045213dbd4172dc1ec10db4d036bd1d5bdd097506466b8d564126c1a22917",
          "blockNumber": "0x49848ed",
          "transactionHash": "0x4d601e7403ca9bfd512016e1278c940fe5003904fa0b3e926dba8f1559234655",
          "transactionIndex": "0x38",
          "logIndex": "0x1d3",
          "removed": false
        }
      ],
      "logsBloom": "0x00000000000000000000000000000002400080040000000000000000000000000000000000000000000000000000000000008000000000000020000000200400000000000000000000000000000002800000000000000000000100000000000000000000000000040000200000000200000000000000000080000000000240000040020000040000080800000000000000000000000081000000000000000000220000000000000000000000000080000800000000000000000020000000004000000020000000000001000000000000000000000004040000120000000000000010000000000000000000200000010000000000100000000000000000100000",
      "type": "0x2",
      "transactionHash": "0x4d601e7403ca9bfd512016e1278c940fe5003904fa0b3e926dba8f1559234655",
      "transactionIndex": "0x38",
      "blockHash": "0x510045213dbd4172dc1ec10db4d036bd1d5bdd097506466b8d564126c1a22917",
      "blockNumber": "0x49848ed",
      "gasUsed": "0xfc45",
      "effectiveGasPrice": "0x140219812a",
      "from": "0xabd10f0a61270d6977c5bfd9d4ec74d6d3bc96ab",
      "to": "0x1547e8603048137deff6fc029c1778e2889a0f83",
      "contractAddress": null
    }
  ],
  "libraries": [],
  "pending": [],
  "returns": {},
  "timestamp": 1759240608667,
  "chain": 137,
  "commit": "5e16dc2"
}