{
  "transactions": [
    {
      "hash": "0xefc182654fc07142e96e225e121fdb98e53c8d63f4957770a76ac15db5c7179a",
      "transactionType": "CALL",
      "contractName": "ProxyBase",
      "contractAddress": "0x1547e8603048137deff6fc029c1778e2889a0f83",
      "function": "changeImplementation(address,bytes)",
      "arguments": [
        "0xA318b008a289E4D56a23B064ac4Ad95A57217a8e",
        "0x"
      ],
      "transaction": {
        "from": "0xabd10f0a61270d6977c5bfd9d4ec74d6d3bc96ab",
        "to": "0x1547e8603048137deff6fc029c1778e2889a0f83",
        "gas": "0xb69d",
        "value": "0x0",
        "input": "0x31124171000000000000000000000000a318b008a289e4d56a23b064ac4ad95a57217a8e00000000000000000000000000000000000000000000000000000000000000400000000000000000000000000000000000000000000000000000000000000000",
        "nonce": "0x47",
        "chainId": "0x89"
      },
      "additionalContracts": [],
      "isFixedGasLimit": false
    }
  ],
  "receipts": [
    {
      "status": "0x1",
      "cumulativeGasUsed": "0xc704c5",
      "logs": [
        {
          "address": "0x1547e8603048137deff6fc029c1778e2889a0f83",
          "topics": [
            "0xbc7cd75a20ee27fd9adebab32041f755214dbc6bffa90cc0225b39da2e5c2d3b",
            "0x000000000000000000000000a318b008a289e4d56a23b064ac4ad95a57217a8e"
          ],
          "data": "0x",
          "blockHash": "0x955737b7d8ddd87ac7043ae372d4388fe214d7240e316bd62ec9ae65d02c204a",
          "blockNumber": "0x46e8d25",
          "transactionHash": "0xefc182654fc07142e96e225e121fdb98e53c8d63f4957770a76ac15db5c7179a",
          "transactionIndex": "0x55",
          "logIndex": "0x20d",
          "removed": false
        },
        {
          "address": "0x0000000000000000000000000000000000001010",
          "topics": [
            "0x4dfe1bbbcf077ddc3e01291eea2d5c70c2b422b415d95645b9adcfd678cb1d63",
            "0x0000000000000000000000000000000000000000000000000000000000001010",
            "0x000000000000000000000000abd10f0a61270d6977c5bfd9d4ec74d6d3bc96ab",
            "0x000000000000000000000000eedba2484aaf940f37cd3cd21a5d7c4a7dafbfc0"
          ],
          "data": "0x000000000000000000000000000000000000000000000000000368b0f0bc0a62000000000000000000000000000000000000000000000000c1fad26b937c28a5000000000000000000000000000000000000000000022da2625dc077e42914e8000000000000000000000000000000000000000000000000c1f769baa2c01e43000000000000000000000000000000000000000000022da262612928d4e51f4a",
          "blockHash": "0x955737b7d8ddd87ac7043ae372d4388fe214d7240e316bd62ec9ae65d02c204a",
          "blockNumber": "0x46e8d25",
          "transactionHash": "0xefc182654fc07142e96e225e121fdb98e53c8d63f4957770a76ac15db5c7179a",
          "transactionIndex": "0x55",
          "logIndex": "0x20e",
          "removed": false
        }
      ],
      "logsBloom": "0x00000000000000000000000000000000400000000000000000000000000000000000000000000000000000000000000000008000000000000000000000000400000000000000000000000000000002800200000000000000000100000000000000000000000000000000200000000000000000000100000080000000000200000000024000100000000000000000000000000000000000000000000008000000200000000000000000000000000000000000000000000000000020000000004000000020000000000001000000000000000000000000000000100000000000000000000000000000000000000000000000000000000000000000000000100000",
      "type": "0x2",
      "transactionHash": "0xefc182654fc07142e96e225e121fdb98e53c8d63f4957770a76ac15db5c7179a",
      "transactionIndex": "0x55",
      "blockHash": "0x955737b7d8ddd87ac7043ae372d4388fe214d7240e316bd62ec9ae65d02c204a",
      "blockNumber": "0x46e8d25",
      "gasUsed": "0x8436",
      "effectiveGasPrice": "0x699caac59",
      "from": "0xabd10f0a61270d6977c5bfd9d4ec74d6d3bc96ab",
      "to": "0x1547e8603048137deff6fc029c1778e2889a0f83",
      "contractAddress": null
    }
  ],
  "libraries": [],
  "pending": [],
  "returns": {},
  "timestamp": 1753365727,
  "chain": 137,
  "commit": "2e27aba"
}