{
  "transactions": [
    {
      "hash": "0x70a751653ffceaee8ade06c906625f1df0fbab735db8a0183ea3e74d98b65f49",
      "transactionType": "CALL",
      "contractName": "ProxyBase",
      "contractAddress": "0x1547e8603048137deff6fc029c1778e2889a0f83",
      "function": "changeImplementation(address,bytes)",
      "arguments": [
        "0xC724D3E76B501B97B93DA8cb964EA380621586F0",
        "0x"
      ],
      "transaction": {
        "from": "0xabd10f0a61270d6977c5bfd9d4ec74d6d3bc96ab",
        "to": "0x1547e8603048137deff6fc029c1778e2889a0f83",
        "gas": "0xb69d",
        "value": "0x0",
        "input": "0x31124171000000000000000000000000c724d3e76b501b97b93da8cb964ea380621586f000000000000000000000000000000000000000000000000000000000000000400000000000000000000000000000000000000000000000000000000000000000",
        "nonce": "0x45",
        "chainId": "0x89"
      },
      "additionalContracts": [],
      "isFixedGasLimit": false
    }
  ],
  "receipts": [
    {
      "status": "0x1",
      "cumulativeGasUsed": "0x11e5f9c",
      "logs": [
        {
          "address": "0x1547e8603048137deff6fc029c1778e2889a0f83",
          "topics": [
            "0xbc7cd75a20ee27fd9adebab32041f755214dbc6bffa90cc0225b39da2e5c2d3b",
            "0x000000000000000000000000c724d3e76b501b97b93da8cb964ea380621586f0"
          ],
          "data": "0x",
          "blockHash": "0x052985ea8fe9a456d02b55aa07b6941b2092ba829890cc28700a5fe5ea860086",
          "blockNumber": "0x465129d",
          "transactionHash": "0x70a751653ffceaee8ade06c906625f1df0fbab735db8a0183ea3e74d98b65f49",
          "transactionIndex": "0x66",
          "logIndex": "0x1f7",
          "removed": false
        },
        {
          "address": "0x0000000000000000000000000000000000001010",
          "topics": [
            "0x4dfe1bbbcf077ddc3e01291eea2d5c70c2b422b415d95645b9adcfd678cb1d63",
            "0x0000000000000000000000000000000000000000000000000000000000001010",
            "0x000000000000000000000000abd10f0a61270d6977c5bfd9d4ec74d6d3bc96ab",
            "0x000000000000000000000000eedba2484aaf940f37cd3cd21a5d7c4a7dafbfc0"
          ],
          "data": "0x0000000000000000000000000000000000000000000000000003205a08fbd800000000000000000000000000000000000000000000000000c327fd2bb6aa7d2500000000000000000000000000000000000000000002243b7d6c321761e578fe000000000000000000000000000000000000000000000000c324dcd1adaea52500000000000000000000000000000000000000000002243b7d6f52716ae150fe",
          "blockHash": "0x052985ea8fe9a456d02b55aa07b6941b2092ba829890cc28700a5fe5ea860086",
          "blockNumber": "0x465129d",
          "transactionHash": "0x70a751653ffceaee8ade06c906625f1df0fbab735db8a0183ea3e74d98b65f49",
          "transactionIndex": "0x66",
          "logIndex": "0x1f8",
          "removed": false
        }
      ],
      "logsBloom": "0x000000000000000000000000000000004000000000000000000000000000000000000000000000000000000000000000000080000000000000000000000004000000000000000000000000000000028000000000000000000001000a0000000000000000000000000000200000000000000200000100000080000000000200000000024000000000000000000000000000000000000000000000000000000000200000000000000000000000000000000000000000000000000020000000004000000020000000000001000000000000000000000000000000100000000000000000000000000000000000000000000000000000000000000000000000100000",
      "type": "0x2",
      "transactionHash": "0x70a751653ffceaee8ade06c906625f1df0fbab735db8a0183ea3e74d98b65f49",
      "transactionIndex": "0x66",
      "blockHash": "0x052985ea8fe9a456d02b55aa07b6941b2092ba829890cc28700a5fe5ea860086",
      "blockNumber": "0x465129d",
      "gasUsed": "0x8436",
      "effectiveGasPrice": "0x60db88492",
      "from": "0xabd10f0a61270d6977c5bfd9d4ec74d6d3bc96ab",
      "to": "0x1547e8603048137deff6fc029c1778e2889a0f83",
      "contractAddress": null
    }
  ],
  "libraries": [],
  "pending": [],
  "returns": {},
  "timestamp": 1751984195,
  "chain": 137,
  "commit": "2c62806"
}