{
  "transactions": [
    {
      "hash": "0xdb786db1f52f99b474580bcb13f2e58ea1c9eb25a97d79ee11e52f61959f0274",
      "transactionType": "CALL",
      "contractName": "ProxyBase",
      "contractAddress": "0x1547e8603048137deff6fc029c1778e2889a0f83",
      "function": "changeImplementation(address,bytes)",
      "arguments": [
        "0x7509c6091F586258E6FE0EC95be9096Ad578bF75",
        "0x"
      ],
      "transaction": {
        "from": "0xabd10f0a61270d6977c5bfd9d4ec74d6d3bc96ab",
        "to": "0x1547e8603048137deff6fc029c1778e2889a0f83",
        "gas": "0xb69d",
        "value": "0x0",
        "input": "0x311241710000000000000000000000007509c6091f586258e6fe0ec95be9096ad578bf7500000000000000000000000000000000000000000000000000000000000000400000000000000000000000000000000000000000000000000000000000000000",
        "nonce": "0x49",
        "chainId": "0x89"
      },
      "additionalContracts": [],
      "isFixedGasLimit": false
    }
  ],
  "receipts": [
    {
      "status": "0x1",
      "cumulativeGasUsed": "0xb0b9e7",
      "logs": [
        {
          "address": "0x1547e8603048137deff6fc029c1778e2889a0f83",
          "topics": [
            "0xbc7cd75a20ee27fd9adebab32041f755214dbc6bffa90cc0225b39da2e5c2d3b",
            "0x0000000000000000000000007509c6091f586258e6fe0ec95be9096ad578bf75"
          ],
          "data": "0x",
          "blockHash": "0xfda3b9fcb7f4efb166750668678fd834f98d3c9c80592151981691543188790d",
          "blockNumber": "0x46e9071",
          "transactionHash": "0xdb786db1f52f99b474580bcb13f2e58ea1c9eb25a97d79ee11e52f61959f0274",
          "transactionIndex": "0x43",
          "logIndex": "0x1f8",
          "removed": false
        },
        {
          "address": "0x0000000000000000000000000000000000001010",
          "topics": [
            "0x4dfe1bbbcf077ddc3e01291eea2d5c70c2b422b415d95645b9adcfd678cb1d63",
            "0x0000000000000000000000000000000000000000000000000000000000001010",
            "0x000000000000000000000000abd10f0a61270d6977c5bfd9d4ec74d6d3bc96ab",
            "0x0000000000000000000000009ead03f7136fc6b4bdb0780b00a1c14ae5a8b6d0"
          ],
          "data": "0x00000000000000000000000000000000000000000000000000039b7b94364800000000000000000000000000000000000000000000000000c0a028dcb30881c70000000000000000000000000000000000000000000001468084ccdfe47a583c000000000000000000000000000000000000000000000000c09c8d611ed239c70000000000000000000000000000000000000000000001468088685b78b0a03c",
          "blockHash": "0xfda3b9fcb7f4efb166750668678fd834f98d3c9c80592151981691543188790d",
          "blockNumber": "0x46e9071",
          "transactionHash": "0xdb786db1f52f99b474580bcb13f2e58ea1c9eb25a97d79ee11e52f61959f0274",
          "transactionIndex": "0x43",
          "logIndex": "0x1f9",
          "removed": false
        }
      ],
      "logsBloom": "0x00000000000000000000000000000000400000000000000000000000000000000000000000000000000000000000000000008000000000000000000000000400000000000000000000000000002002800000000000000000000100000000000000000000000000000000200000000000000000000000200080000000000200000040020000040000000000000000000000000000000000000000000000000000200000000000000000000000000000000000000000000000000020000000004000000020000000000001000000000000000000000000000000120000000000000000000000000000000000000000000000000000000000000000000000100000",
      "type": "0x2",
      "transactionHash": "0xdb786db1f52f99b474580bcb13f2e58ea1c9eb25a97d79ee11e52f61959f0274",
      "transactionIndex": "0x43",
      "blockHash": "0xfda3b9fcb7f4efb166750668678fd834f98d3c9c80592151981691543188790d",
      "blockNumber": "0x46e9071",
      "gasUsed": "0x8436",
      "effectiveGasPrice": "0x6fc23aeef",
      "from": "0xabd10f0a61270d6977c5bfd9d4ec74d6d3bc96ab",
      "to": "0x1547e8603048137deff6fc029c1778e2889a0f83",
      "contractAddress": null
    }
  ],
  "libraries": [],
  "pending": [],
  "returns": {},
  "timestamp": 1753367521,
  "chain": 137,
  "commit": "8bee18a"
}