{
  "transactions": [
    {
      "hash": "0xc922744d233327abd8d24876d30d80ead595be800e8f5433bede8a3e2ac5f00b",
      "transactionType": "CALL",
      "contractName": "ProxyBase",
      "contractAddress": "0x1c60d7075b19c8107dee803272c9d085a0edf775",
      "function": "changeImplementation(address,bytes)",
      "arguments": [
        "0x9B4c2DF16f7F61E9739Ea79f2Bef174F1FbFbD69",
        "0x"
      ],
      "transaction": {
        "from": "0xabd10f0a61270d6977c5bfd9d4ec74d6d3bc96ab",
        "to": "0x1c60d7075b19c8107dee803272c9d085a0edf775",
        "gas": "0xb69d",
        "value": "0x0",
        "input": "0x311241710000000000000000000000009b4c2df16f7f61e9739ea79f2bef174f1fbfbd6900000000000000000000000000000000000000000000000000000000000000400000000000000000000000000000000000000000000000000000000000000000",
        "nonce": "0x3d",
        "chainId": "0x89"
      },
      "additionalContracts": [],
      "isFixedGasLimit": false
    }
  ],
  "receipts": [
    {
      "status": "0x1",
      "cumulativeGasUsed": "0x9b01e2",
      "logs": [
        {
          "address": "0x1c60d7075b19c8107dee803272c9d085a0edf775",
          "topics": [
            "0xbc7cd75a20ee27fd9adebab32041f755214dbc6bffa90cc0225b39da2e5c2d3b",
            "0x0000000000000000000000009b4c2df16f7f61e9739ea79f2bef174f1fbfbd69"
          ],
          "data": "0x",
          "blockHash": "0x31866203fa1228344a83297c614768f52fcb26a547555ecb0fa896a0ff4e8c55",
          "blockNumber": "0x45e41a3",
          "transactionHash": "0xc922744d233327abd8d24876d30d80ead595be800e8f5433bede8a3e2ac5f00b",
          "transactionIndex": "0x45",
          "logIndex": "0x1a0",
          "removed": false
        },
        {
          "address": "0x0000000000000000000000000000000000001010",
          "topics": [
            "0x4dfe1bbbcf077ddc3e01291eea2d5c70c2b422b415d95645b9adcfd678cb1d63",
            "0x0000000000000000000000000000000000000000000000000000000000001010",
            "0x000000000000000000000000abd10f0a61270d6977c5bfd9d4ec74d6d3bc96ab",
            "0x000000000000000000000000794e44d1334a56fea7f4df12633b88820d0c5888"
          ],
          "data": "0x0000000000000000000000000000000000000000000000000003377053209d02000000000000000000000000000000000000000000000000c779e07b3373082f000000000000000000000000000000000000000000000a3744833ccb21e5e083000000000000000000000000000000000000000000000000c776a90ae0526b2d000000000000000000000000000000000000000000000a374486743b75067d85",
          "blockHash": "0x31866203fa1228344a83297c614768f52fcb26a547555ecb0fa896a0ff4e8c55",
          "blockNumber": "0x45e41a3",
          "transactionHash": "0xc922744d233327abd8d24876d30d80ead595be800e8f5433bede8a3e2ac5f00b",
          "transactionIndex": "0x45",
          "logIndex": "0x1a1",
          "removed": false
        }
      ],
      "logsBloom": "0x00000000000000000000000000000000400000000000000000000000000000000000000000001000000000000000000000008000000400000000000000000000000000000000000000000000000002800000000000000000000100020000000004000000000000000000200000000000000000000000000080000000000200000000020000000000000000000000000000000000000000000000000000000000204000000000000000000000000000000000000000000000000000000000004000000020000000000001000000000000000000000000000000100000000000000000000000000000000000000000000000000001010000000200000020100000",
      "type": "0x2",
      "transactionHash": "0xc922744d233327abd8d24876d30d80ead595be800e8f5433bede8a3e2ac5f00b",
      "transactionIndex": "0x45",
      "blockHash": "0x31866203fa1228344a83297c614768f52fcb26a547555ecb0fa896a0ff4e8c55",
      "blockNumber": "0x45e41a3",
      "gasUsed": "0x8436",
      "effectiveGasPrice": "0x63a6c9bb3",
      "from": "0xabd10f0a61270d6977c5bfd9d4ec74d6d3bc96ab",
      "to": "0x1c60d7075b19c8107dee803272c9d085a0edf775",
      "contractAddress": null
    }
  ],
  "libraries": [],
  "pending": [],
  "returns": {},
  "timestamp": 1751030905,
  "chain": 137,
  "commit": "040b0a8"
}