{
  "transactions": [
    {
      "hash": "0xae59f9754a60a7483ffedd7f9fa13141359a153e73c9f2fbc6f624be9a6c4c9d",
      "transactionType": "CALL",
      "contractName": "ProxyBase",
      "contractAddress": "0x1c60d7075b19c8107dee803272c9d085a0edf775",
      "function": "changeImplementation(address,bytes)",
      "arguments": [
        "0x8bcd92E87B3f67457C80F085379Ef7fC65d3bCcD",
        "0x"
      ],
      "transaction": {
        "from": "0xabd10f0a61270d6977c5bfd9d4ec74d6d3bc96ab",
        "to": "0x1c60d7075b19c8107dee803272c9d085a0edf775",
        "gas": "0xb69d",
        "value": "0x0",
        "input": "0x311241710000000000000000000000008bcd92e87b3f67457c80f085379ef7fc65d3bccd00000000000000000000000000000000000000000000000000000000000000400000000000000000000000000000000000000000000000000000000000000000",
        "nonce": "0x41",
        "chainId": "0x89"
      },
      "additionalContracts": [],
      "isFixedGasLimit": false
    }
  ],
  "receipts": [
    {
      "status": "0x1",
      "cumulativeGasUsed": "0x1b6fc5e",
      "logs": [
        {
          "address": "0x1c60d7075b19c8107dee803272c9d085a0edf775",
          "topics": [
            "0xbc7cd75a20ee27fd9adebab32041f755214dbc6bffa90cc0225b39da2e5c2d3b",
            "0x0000000000000000000000008bcd92e87b3f67457c80f085379ef7fc65d3bccd"
          ],
          "data": "0x",
          "blockHash": "0xd5e166de1fec9911a5be78f5d2162e810cb568a4d518e8c0d69f1ccbb91b3ffb",
          "blockNumber": "0x4646660",
          "transactionHash": "0xae59f9754a60a7483ffedd7f9fa13141359a153e73c9f2fbc6f624be9a6c4c9d",
          "transactionIndex": "0x87",
          "logIndex": "0x3fa",
          "removed": false
        },
        {
          "address": "0x0000000000000000000000000000000000001010",
          "topics": [
            "0x4dfe1bbbcf077ddc3e01291eea2d5c70c2b422b415d95645b9adcfd678cb1d63",
            "0x0000000000000000000000000000000000000000000000000000000000001010",
            "0x000000000000000000000000abd10f0a61270d6977c5bfd9d4ec74d6d3bc96ab",
            "0x000000000000000000000000ef46d5fe753c988606e6f703260d816af53b03eb"
          ],
          "data": "0x00000000000000000000000000000000000000000000000000039b7b9435c3ca000000000000000000000000000000000000000000000000c4d738ec902fe1b3000000000000000000000000000000000000000000000016d6608676ab48538c000000000000000000000000000000000000000000000000c4d39d70fbfa1de9000000000000000000000000000000000000000000000016d66421f23f7e1756",
          "blockHash": "0xd5e166de1fec9911a5be78f5d2162e810cb568a4d518e8c0d69f1ccbb91b3ffb",
          "blockNumber": "0x4646660",
          "transactionHash": "0xae59f9754a60a7483ffedd7f9fa13141359a153e73c9f2fbc6f624be9a6c4c9d",
          "transactionIndex": "0x87",
          "logIndex": "0x3fb",
          "removed": false
        }
      ],
      "logsBloom": "0x00000000000000000000000000002000400000000000000000000000040000000000000000000000000000000000000000008000000400000000000000000000000000000000000000000000000002800000000000000000000100000000000000000000000000000000200000000000000000000000000080000000000200000000020000000000000000000000000000000000000000000000000000000000204000000000000000000000000000000000000000000000000000200000004000000020000000000001000000000008000000000000000000100000000000000000000000000000000000000000000002000000000000000200000000100000",
      "type": "0x2",
      "transactionHash": "0xae59f9754a60a7483ffedd7f9fa13141359a153e73c9f2fbc6f624be9a6c4c9d",
      "transactionIndex": "0x87",
      "blockHash": "0xd5e166de1fec9911a5be78f5d2162e810cb568a4d518e8c0d69f1ccbb91b3ffb",
      "blockNumber": "0x4646660",
      "gasUsed": "0x8436",
      "effectiveGasPrice": "0x6fc23ad2a",
      "from": "0xabd10f0a61270d6977c5bfd9d4ec74d6d3bc96ab",
      "to": "0x1c60d7075b19c8107dee803272c9d085a0edf775",
      "contractAddress": null
    }
  ],
  "libraries": [],
  "pending": [],
  "returns": {},
  "timestamp": 1751890481,
  "chain": 137,
  "commit": "037c13e"
}