{
  "transactions": [
    {
      "hash": "0xf282c7fc0652a1e887d088e6f2a41833acf31885e4615f6c638cfb66cc3061b8",
      "transactionType": "CALL",
      "contractName": "ProxyBase",
      "contractAddress": "0x1c60d7075b19c8107dee803272c9d085a0edf775",
      "function": "changeImplementation(address,bytes)",
      "arguments": [
        "0xc62D48cbD608549d05e27e2b3d4B09eb6b0beD19",
        "0x2afbbedb0000000000000000000000000000000000000000000000000000000000000020000000000000000000000000000000000000000000000000000000000000000200000000000000000000000000000000000000000000000000000000000000400000000000000000000000000000000000000000000000000000000000000000"
      ],
      "transaction": {
        "from": "0xabd10f0a61270d6977c5bfd9d4ec74d6d3bc96ab",
        "to": "0x1c60d7075b19c8107dee803272c9d085a0edf775",
        "gas": "0x15859",
        "value": "0x0",
        "input": "0x31124171000000000000000000000000c62d48cbd608549d05e27e2b3d4b09eb6b0bed19000000000000000000000000000000000000000000000000000000000000004000000000000000000000000000000000000000000000000000000000000000842afbbedb000000000000000000000000000000000000000000000000000000000000002000000000000000000000000000000000000000000000000000000000000000020000000000000000000000000000000000000000000000000000000000000040000000000000000000000000000000000000000000000000000000000000000000000000000000000000000000000000000000000000000000000000",
        "nonce": "0x4d",
        "chainId": "0x89"
      },
      "additionalContracts": [],
      "isFixedGasLimit": false
    }
  ],
  "receipts": [
    {
      "status": "0x1",
      "cumulativeGasUsed": "0xce93b3",
      "logs": [
        {
          "address": "0x1c60d7075b19c8107dee803272c9d085a0edf775",
          "topics": [
            "0xbc7cd75a20ee27fd9adebab32041f755214dbc6bffa90cc0225b39da2e5c2d3b",
            "0x000000000000000000000000c62d48cbd608549d05e27e2b3d4b09eb6b0bed19"
          ],
          "data": "0x",
          "blockHash": "0xc473795a105ad24b6d72c0fcba72083988c22fca6ec1b407c27c51f4ed14c894",
          "blockNumber": "0x4984911",
          "transactionHash": "0xf282c7fc0652a1e887d088e6f2a41833acf31885e4615f6c638cfb66cc3061b8",
          "transactionIndex": "0x4f",
          "logIndex": "0x1f7",
          "removed": false
        },
        {
          "address": "0x3c499c542cef5e3811e1192ce70d8cc03d5c3359",
          "topics": [
            "0x8c5be1e5ebec7d5bd14f71427d1e84f3dd0314c0f7b2291e5b200ac8c7c3b925",
            "0x0000000000000000000000001c60d7075b19c8107dee803272c9d085a0edf775",
            "0x000000000000000000000000794a61358d6845594f94dc1db02a252b5b4814ad"
          ],
          "data": "0x0000000000000000000000000000000000000000000000000000000000000000",
          "blockHash": "0xc473795a105ad24b6d72c0fcba72083988c22fca6ec1b407c27c51f4ed14c894",
          "blockNumber": "0x4984911",
          "transactionHash": "0xf282c7fc0652a1e887d088e6f2a41833acf31885e4615f6c638cfb66cc3061b8",
          "transactionIndex": "0x4f",
          "logIndex": "0x1f8",
          "removed": false
        },
        {
          "address": "0x3c499c542cef5e3811e1192ce70d8cc03d5c3359",
          "topics": [
            "0x8c5be1e5ebec7d5bd14f71427d1e84f3dd0314c0f7b2291e5b200ac8c7c3b925",
            "0x0000000000000000000000001c60d7075b19c8107dee803272c9d085a0edf775",
            "0x00000000000000000000000048b9aacc350b20147001f88821d31731ba4c30ed"
          ],
          "data": "0x0000000000000000000000000000000000000000000000000000000000000000",
          "blockHash": "0xc473795a105ad24b6d72c0fcba72083988c22fca6ec1b407c27c51f4ed14c894",
          "blockNumber": "0x4984911",
          "transactionHash": "0xf282c7fc0652a1e887d088e6f2a41833acf31885e4615f6c638cfb66cc3061b8",
          "transactionIndex": "0x4f",
          "logIndex": "0x1f9",
          "removed": false
        },
        {
          "address": "0x1c60d7075b19c8107dee803272c9d085a0edf775",
          "topics": [
            "0xc7f505b2f371ae2175ee4913f4499e1f2633a7b5936321eed1cdaeb6115181d2"
          ],
          "data": "0x0000000000000000000000000000000000000000000000000000000000000002",
          "blockHash": "0xc473795a105ad24b6d72c0fcba72083988c22fca6ec1b407c27c51f4ed14c894",
          "blockNumber": "0x4984911",
          "transactionHash": "0xf282c7fc0652a1e887d088e6f2a41833acf31885e4615f6c638cfb66cc3061b8",
          "transactionIndex": "0x4f",
          "logIndex": "0x1fa",
          "removed": false
        },
        {
          "address": "0x0000000000000000000000000000000000001010",
          "topics": [
            "0x4dfe1bbbcf077ddc3e01291eea2d5c70c2b422b415d95645b9adcfd678cb1d63",
            "0x0000000000000000000000000000000000000000000000000000000000001010",
            "0x000000000000000000000000abd10f0a61270d6977c5bfd9d4ec74d6d3bc96ab",
            "0x00000000000000000000000025b9fc2ed95bbaa9c030e57c860545a17694f90d"
          ],
          "data": "0x00000000000000000000000000000000000000000000000000095b9079dcf83a000000000000000000000000000000000000000000000000bb6d905a6f51e57700000000000000000000000000000000000000000000000cc8c3161582c6bbb4000000000000000000000000000000000000000000000000bb6434c9f574ed3d00000000000000000000000000000000000000000000000cc8cc71a5fca3b3ee",
          "blockHash": "0xc473795a105ad24b6d72c0fcba72083988c22fca6ec1b407c27c51f4ed14c894",
          "blockNumber": "0x4984911",
          "transactionHash": "0xf282c7fc0652a1e887d088e6f2a41833acf31885e4615f6c638cfb66cc3061b8",
          "transactionIndex": "0x4f",
          "logIndex": "0x1fb",
          "removed": false
        }
      ],
      "logsBloom": "0x00000000000000000000000000000000400000000000000000000000000020000000000000000000000000000000000000008000000400000020000000200000000000000000000000000000000002800000000000000000800100000000000000000000000000040000200000000000000000000000000080000000000200000000020000000000080800000000000000000880000081000000000000000000224000000000000000000000000080000800200000000300000000000000004000000020000000000001000000001000000000000004040000110000000000000010000000000000000000000000010000000000100000000200000000100000",
      "type": "0x2",
      "transactionHash": "0xf282c7fc0652a1e887d088e6f2a41833acf31885e4615f6c638cfb66cc3061b8",
      "transactionIndex": "0x4f",
      "blockHash": "0xc473795a105ad24b6d72c0fcba72083988c22fca6ec1b407c27c51f4ed14c894",
      "blockNumber": "0x4984911",
      "gasUsed": "0xf94e",
      "effectiveGasPrice": "0x136135489a",
      "from": "0xabd10f0a61270d6977c5bfd9d4ec74d6d3bc96ab",
      "to": "0x1c60d7075b19c8107dee803272c9d085a0edf775",
      "contractAddress": null
    }
  ],
  "libraries": [],
  "pending": [],
  "returns": {},
  "timestamp": 1759240685483,
  "chain": 137,
  "commit": "5e16dc2"
}