{
  "transactions": [
    {
      "hash": "0x50a6c09a2457bb11bd74c23ce00f19432b43e80b2d8f7bb09ffe6de7473d6788",
      "transactionType": "CALL",
      "contractName": null,
      "contractAddress": "0x33cb07ca2d83298dc4ee9efa5b0c421632b15b11",
      "function": "changeImplementation(address,bytes)",
      "arguments": [
        "0xD4F3Ba2Fe4183c32A498Ad1ecF9Fc55308FcC029",
        "0xbfc3bb1e000000000000000000000000abd10f0a61270d6977c5bfd9d4ec74d6d3bc96ab000000000000000000000000000000000000000000000000000000000000008000000000000000000000000000000000000000000000000000000000000000c000000000000000000000000000000000000000000000000000000000000001000000000000000000000000000000000000000000000000000000000000000001000000000000000000000000000000000000000000000000000000000000000000000000000000000000000000000000000000000000000000000000000000010000000000000000000000008ac76a51cc950d9822d68b83fe1ad97b32cd580d0000000000000000000000000000000000000000000000000000000000000001000000000000000000000000cb513db80c6c76593770fc4a1827d5ab8186b0cd"
      ],
      "transaction": {
        "from": "0xabd10f0a61270d6977c5bfd9d4ec74d6d3bc96ab",
        "to": "0x33cb07ca2d83298dc4ee9efa5b0c421632b15b11",
        "gas": "0x3d0df",
        "value": "0x0",
        "input": "0x31124171000000000000000000000000d4f3ba2fe4183c32a498ad1ecf9fc55308fcc02900000000000000000000000000000000000000000000000000000000000000400000000000000000000000000000000000000000000000000000000000000144bfc3bb1e000000000000000000000000abd10f0a61270d6977c5bfd9d4ec74d6d3bc96ab000000000000000000000000000000000000000000000000000000000000008000000000000000000000000000000000000000000000000000000000000000c000000000000000000000000000000000000000000000000000000000000001000000000000000000000000000000000000000000000000000000000000000001000000000000000000000000000000000000000000000000000000000000000000000000000000000000000000000000000000000000000000000000000000010000000000000000000000008ac76a51cc950d9822d68b83fe1ad97b32cd580d0000000000000000000000000000000000000000000000000000000000000001000000000000000000000000cb513db80c6c76593770fc4a1827d5ab8186b0cd00000000000000000000000000000000000000000000000000000000",
        "nonce": "0x12",
        "chainId": "0x38"
      },
      "additionalContracts": [],
      "isFixedGasLimit": false
    }
  ],
  "receipts": [
    {
      "status": "0x1",
      "cumulativeGasUsed": "0x9ce344",
      "logs": [
        {
          "address": "0x33cb07ca2d83298dc4ee9efa5b0c421632b15b11",
          "topics": [
            "0xbc7cd75a20ee27fd9adebab32041f755214dbc6bffa90cc0225b39da2e5c2d3b",
            "0x000000000000000000000000d4f3ba2fe4183c32a498ad1ecf9fc55308fcc029"
          ],
          "data": "0x",
          "blockHash": "0xccdfb644dbf30c873f2ecee5f916b38cd6bccc548574ac01c5d9cecad00e5d8c",
          "blockNumber": "0x3383de0",
          "transactionHash": "0x50a6c09a2457bb11bd74c23ce00f19432b43e80b2d8f7bb09ffe6de7473d6788",
          "transactionIndex": "0x3f",
          "logIndex": "0x180",
          "removed": false
        },
        {
          "address": "0x33cb07ca2d83298dc4ee9efa5b0c421632b15b11",
          "topics": [
            "0x4ffd725fc4a22075e9ec71c59edf9c38cdeb588a91b24fc5b61388c5be41282b"
          ],
          "data": "0x000000000000000000000000abd10f0a61270d6977c5bfd9d4ec74d6d3bc96ab",
          "blockHash": "0xccdfb644dbf30c873f2ecee5f916b38cd6bccc548574ac01c5d9cecad00e5d8c",
          "blockNumber": "0x3383de0",
          "transactionHash": "0x50a6c09a2457bb11bd74c23ce00f19432b43e80b2d8f7bb09ffe6de7473d6788",
          "transactionIndex": "0x3f",
          "logIndex": "0x181",
          "removed": false
        },
        {
          "address": "0x33cb07ca2d83298dc4ee9efa5b0c421632b15b11",
          "topics": [
            "0x88905fa0fe1070e918add990d82927acde2d27309fb6ea4b0ca6d9fe7725e1cf"
          ],
          "data": "0x00000000000000000000000000000000000000000000000000000000000000000000000000000000000000008ac76a51cc950d9822d68b83fe1ad97b32cd580d000000000000000000000000cb513db80c6c76593770fc4a1827d5ab8186b0cd",
          "blockHash": "0xccdfb644dbf30c873f2ecee5f916b38cd6bccc548574ac01c5d9cecad00e5d8c",
          "blockNumber": "0x3383de0",
          "transactionHash": "0x50a6c09a2457bb11bd74c23ce00f19432b43e80b2d8f7bb09ffe6de7473d6788",
          "transactionIndex": "0x3f",
          "logIndex": "0x182",
          "removed": false
        },
        {
          "address": "0x8ac76a51cc950d9822d68b83fe1ad97b32cd580d",
          "topics": [
            "0x8c5be1e5ebec7d5bd14f71427d1e84f3dd0314c0f7b2291e5b200ac8c7c3b925",
            "0x00000000000000000000000033cb07ca2d83298dc4ee9efa5b0c421632b15b11",
            "0x000000000000000000000000cb513db80c6c76593770fc4a1827d5ab8186b0cd"
          ],
          "data": "0xffffffffffffffffffffffffffffffffffffffffffffffffffffffffffffffff",
          "blockHash": "0xccdfb644dbf30c873f2ecee5f916b38cd6bccc548574ac01c5d9cecad00e5d8c",
          "blockNumber": "0x3383de0",
          "transactionHash": "0x50a6c09a2457bb11bd74c23ce00f19432b43e80b2d8f7bb09ffe6de7473d6788",
          "transactionIndex": "0x3f",
          "logIndex": "0x183",
          "removed": false
        },
        {
          "address": "0x8ac76a51cc950d9822d68b83fe1ad97b32cd580d",
          "topics": [
            "0x8c5be1e5ebec7d5bd14f71427d1e84f3dd0314c0f7b2291e5b200ac8c7c3b925",
            "0x00000000000000000000000033cb07ca2d83298dc4ee9efa5b0c421632b15b11",
            "0x00000000000000000000000048b9aacc350b20147001f88821d31731ba4c30ed"
          ],
          "data": "0xffffffffffffffffffffffffffffffffffffffffffffffffffffffffffffffff",
          "blockHash": "0xccdfb644dbf30c873f2ecee5f916b38cd6bccc548574ac01c5d9cecad00e5d8c",
          "blockNumber": "0x3383de0",
          "transactionHash": "0x50a6c09a2457bb11bd74c23ce00f19432b43e80b2d8f7bb09ffe6de7473d6788",
          "transactionIndex": "0x3f",
          "logIndex": "0x184",
          "removed": false
        },
        {
          "address": "0x33cb07ca2d83298dc4ee9efa5b0c421632b15b11",
          "topics": [
            "0xc7f505b2f371ae2175ee4913f4499e1f2633a7b5936321eed1cdaeb6115181d2"
          ],
          "data": "0x0000000000000000000000000000000000000000000000000000000000000001",
          "blockHash": "0xccdfb644dbf30c873f2ecee5f916b38cd6bccc548574ac01c5d9cecad00e5d8c",
          "blockNumber": "0x3383de0",
          "transactionHash": "0x50a6c09a2457bb11bd74c23ce00f19432b43e80b2d8f7bb09ffe6de7473d6788",
          "transactionIndex": "0x3f",
          "logIndex": "0x185",
          "removed": false
        }
      ],
      "logsBloom": "0x00000000000000080000000020000000400000000000000000000000000000000000000000000000000000000010000000000000000000000000000000201080000000000000004000000002000002000000000000000000000000000000000000000000000000000000000000000010040000000000000000000000000000004000000000000000080800000000008000000000000081040000000000000008020000000000000000000000000080040000000000000000100000008002000000010020000020000000000000000000000000000004000000000000000000000010000000004001000000000000000000000000000000000000000000000000",
      "type": "0x0",
      "transactionHash": "0x50a6c09a2457bb11bd74c23ce00f19432b43e80b2d8f7bb09ffe6de7473d6788",
      "transactionIndex": "0x3f",
      "blockHash": "0xccdfb644dbf30c873f2ecee5f916b38cd6bccc548574ac01c5d9cecad00e5d8c",
      "blockNumber": "0x3383de0",
      "gasUsed": "0x29bf3",
      "effectiveGasPrice": "0x5f5e100",
      "from": "0xabd10f0a61270d6977c5bfd9d4ec74d6d3bc96ab",
      "to": "0x33cb07ca2d83298dc4ee9efa5b0c421632b15b11",
      "contractAddress": null
    }
  ],
  "libraries": [],
  "pending": [],
  "returns": {},
  "timestamp": 1752510984,
  "chain": 56,
  "commit": "e26ff71"
}