{
  "transactions": [
    {
      "hash": "0xcc21a78c0fe3bf864cc478fe17cff5a72d57afcb8f7e796029376dacf76cffbf",
      "transactionType": "CALL",
      "contractName": "ProxyBase",
      "contractAddress": "0x33cb07ca2d83298dc4ee9efa5b0c421632b15b11",
      "function": "changeImplementation(address,bytes)",
      "arguments": [
        "0xA939a79cC67298fb014C164d621E44e4b5A312f5",
        "0x"
      ],
      "transaction": {
        "from": "0xabd10f0a61270d6977c5bfd9d4ec74d6d3bc96ab",
        "to": "0x33cb07ca2d83298dc4ee9efa5b0c421632b15b11",
        "gas": "0xb69d",
        "value": "0x0",
        "input": "0x31124171000000000000000000000000a939a79cc67298fb014c164d621e44e4b5a312f500000000000000000000000000000000000000000000000000000000000000400000000000000000000000000000000000000000000000000000000000000000",
        "nonce": "0x1c",
        "chainId": "0x38"
      },
      "additionalContracts": [],
      "isFixedGasLimit": false
    }
  ],
  "receipts": [
    {
      "status": "0x1",
      "cumulativeGasUsed": "0xc8b8d4",
      "logs": [
        {
          "address": "0x33cb07ca2d83298dc4ee9efa5b0c421632b15b11",
          "topics": [
            "0xbc7cd75a20ee27fd9adebab32041f755214dbc6bffa90cc0225b39da2e5c2d3b",
            "0x000000000000000000000000a939a79cc67298fb014c164d621e44e4b5a312f5"
          ],
          "data": "0x",
          "blockHash": "0xe1a4fcf93464329635e20afcd02faa09450da7d496ec55f906b0427841a3eb83",
          "blockNumber": "0x349aa92",
          "transactionHash": "0xcc21a78c0fe3bf864cc478fe17cff5a72d57afcb8f7e796029376dacf76cffbf",
          "transactionIndex": "0x85",
          "logIndex": "0x190",
          "removed": false
        }
      ],
      "logsBloom": "0x00000000000000000000000000000000400000000000000000000000000000000000000000000000000000000000000000000000000100000400000000000000000000000000000000000002000002000000000000000000000000000000000000000000000000000000000000008000000000000000000000000000000000000000000000000000000000000000000000000000000000000000000000000008000000000000000000000000000000000000000000000000000000008000000000000020000000000000000000000000000000000000000000000000000000000000000000000000000000000000000000000000000000000000000000000000",
      "type": "0x0",
      "transactionHash": "0xcc21a78c0fe3bf864cc478fe17cff5a72d57afcb8f7e796029376dacf76cffbf",
      "transactionIndex": "0x85",
      "blockHash": "0xe1a4fcf93464329635e20afcd02faa09450da7d496ec55f906b0427841a3eb83",
      "blockNumber": "0x349aa92",
      "gasUsed": "0x8436",
      "effectiveGasPrice": "0x5f5e100",
      "from": "0xabd10f0a61270d6977c5bfd9d4ec74d6d3bc96ab",
      "to": "0x33cb07ca2d83298dc4ee9efa5b0c421632b15b11",
      "contractAddress": null
    }
  ],
  "libraries": [],
  "pending": [],
  "returns": {},
  "timestamp": 1753367537,
  "chain": 56,
  "commit": "8bee18a"
}