{
  "transactions": [
    {
      "hash": "0x04484823dc578e3f9a567b50e6f82aeb8431dcdea7e67b74afe4fd3551753c2c",
      "transactionType": "CALL",
      "contractName": "ProxyBase",
      "contractAddress": "0x33cb07ca2d83298dc4ee9efa5b0c421632b15b11",
      "function": "changeImplementation(address,bytes)",
      "arguments": [
        "0x47C03cbAf42ddee10F997E50c64EBC54248aA498",
        "0x2afbbedb0000000000000000000000000000000000000000000000000000000000000020000000000000000000000000000000000000000000000000000000000000000200000000000000000000000000000000000000000000000000000000000000400000000000000000000000000000000000000000000000000000000000000001000000000000000000000000cb513db80c6c76593770fc4a1827d5ab8186b0cd"
      ],
      "transaction": {
        "from": "0xabd10f0a61270d6977c5bfd9d4ec74d6d3bc96ab",
        "to": "0x33cb07ca2d83298dc4ee9efa5b0c421632b15b11",
        "gas": "0x16523",
        "value": "0x0",
        "input": "0x3112417100000000000000000000000047c03cbaf42ddee10f997e50c64ebc54248aa498000000000000000000000000000000000000000000000000000000000000004000000000000000000000000000000000000000000000000000000000000000a42afbbedb0000000000000000000000000000000000000000000000000000000000000020000000000000000000000000000000000000000000000000000000000000000200000000000000000000000000000000000000000000000000000000000000400000000000000000000000000000000000000000000000000000000000000001000000000000000000000000cb513db80c6c76593770fc4a1827d5ab8186b0cd00000000000000000000000000000000000000000000000000000000",
        "nonce": "0x1f",
        "chainId": "0x38"
      },
      "additionalContracts": [],
      "isFixedGasLimit": false
    }
  ],
  "receipts": [
    {
      "status": "0x1",
      "cumulativeGasUsed": "0xa76dda",
      "logs": [
        {
          "address": "0x33cb07ca2d83298dc4ee9efa5b0c421632b15b11",
          "topics": [
            "0xbc7cd75a20ee27fd9adebab32041f755214dbc6bffa90cc0225b39da2e5c2d3b",
            "0x00000000000000000000000047c03cbaf42ddee10f997e50c64ebc54248aa498"
          ],
          "data": "0x",
          "blockHash": "0x43b8bacf384ec33bf1289c6e130314d1cba3b681a3720a9415519350f6267500",
          "blockNumber": "0x3c12173",
          "transactionHash": "0x04484823dc578e3f9a567b50e6f82aeb8431dcdea7e67b74afe4fd3551753c2c",
          "transactionIndex": "0x3b",
          "logIndex": "0x135",
          "removed": false
        },
        {
          "address": "0x8ac76a51cc950d9822d68b83fe1ad97b32cd580d",
          "topics": [
            "0x8c5be1e5ebec7d5bd14f71427d1e84f3dd0314c0f7b2291e5b200ac8c7c3b925",
            "0x00000000000000000000000033cb07ca2d83298dc4ee9efa5b0c421632b15b11",
            "0x00000000000000000000000048b9aacc350b20147001f88821d31731ba4c30ed"
          ],
          "data": "0x0000000000000000000000000000000000000000000000000000000000000000",
          "blockHash": "0x43b8bacf384ec33bf1289c6e130314d1cba3b681a3720a9415519350f6267500",
          "blockNumber": "0x3c12173",
          "transactionHash": "0x04484823dc578e3f9a567b50e6f82aeb8431dcdea7e67b74afe4fd3551753c2c",
          "transactionIndex": "0x3b",
          "logIndex": "0x136",
          "removed": false
        },
        {
          "address": "0x8ac76a51cc950d9822d68b83fe1ad97b32cd580d",
          "topics": [
            "0x8c5be1e5ebec7d5bd14f71427d1e84f3dd0314c0f7b2291e5b200ac8c7c3b925",
            "0x00000000000000000000000033cb07ca2d83298dc4ee9efa5b0c421632b15b11",
            "0x000000000000000000000000cb513db80c6c76593770fc4a1827d5ab8186b0cd"
          ],
          "data": "0x0000000000000000000000000000000000000000000000000000000000000000",
          "blockHash": "0x43b8bacf384ec33bf1289c6e130314d1cba3b681a3720a9415519350f6267500",
          "blockNumber": "0x3c12173",
          "transactionHash": "0x04484823dc578e3f9a567b50e6f82aeb8431dcdea7e67b74afe4fd3551753c2c",
          "transactionIndex": "0x3b",
          "logIndex": "0x137",
          "removed": false
        },
        {
          "address": "0x33cb07ca2d83298dc4ee9efa5b0c421632b15b11",
          "topics": [
            "0xc7f505b2f371ae2175ee4913f4499e1f2633a7b5936321eed1cdaeb6115181d2"
          ],
          "data": "0x0000000000000000000000000000000000000000000000000000000000000002",
          "blockHash": "0x43b8bacf384ec33bf1289c6e130314d1cba3b681a3720a9415519350f6267500",
          "blockNumber": "0x3c12173",
          "transactionHash": "0x04484823dc578e3f9a567b50e6f82aeb8431dcdea7e67b74afe4fd3551753c2c",
          "transactionIndex": "0x3b",
          "logIndex": "0x138",
          "removed": false
        }
      ],
      "logsBloom": "0x00000800000000000000000000000000400000000000000000000000000000000000000000000000000000000010800000800000000000000000000000200080000000000000000000000002000002000000000000000000000000000000000000000000000000000000000000000010040000000000000000000000000000000000000000000000080800000000008000000000000081040000000000000008020000000000000000000000000080000000000000000000000000008000000000000020000020000000000000000000000000000004000000000000000000000010000000004001000000000000000000000000000000000000000000000000",
      "type": "0x2",
      "transactionHash": "0x04484823dc578e3f9a567b50e6f82aeb8431dcdea7e67b74afe4fd3551753c2c",
      "transactionIndex": "0x3b",
      "blockHash": "0x43b8bacf384ec33bf1289c6e130314d1cba3b681a3720a9415519350f6267500",
      "blockNumber": "0x3c12173",
      "gasUsed": "0xf433",
      "effectiveGasPrice": "0x5f5e100",
      "from": "0xabd10f0a61270d6977c5bfd9d4ec74d6d3bc96ab",
      "to": "0x33cb07ca2d83298dc4ee9efa5b0c421632b15b11",
      "contractAddress": null
    }
  ],
  "libraries": [],
  "pending": [],
  "returns": {},
  "timestamp": 1759240555582,
  "chain": 56,
  "commit": "5e16dc2"
}