{
  "transactions": [
    {
      "hash": "0x08aa6104a43a2cbff232156b15c40b2c223b0d64a5a68097f051b3be5427cb3c",
      "transactionType": "CALL",
      "contractName": null,
      "contractAddress": "0xe65eee518a897618cbee25898f80200e7988c81e",
      "function": "changeImplementation(address,bytes)",
      "arguments": [
        "0x80F2fc81D53bCF225E7d679282D525d96BF50Bf5",
        "0x"
      ],
      "transaction": {
        "from": "0xabd10f0a61270d6977c5bfd9d4ec74d6d3bc96ab",
        "to": "0xe65eee518a897618cbee25898f80200e7988c81e",
        "gas": "0xc17a",
        "value": "0x0",
        "input": "0x3112417100000000000000000000000080f2fc81d53bcf225e7d679282d525d96bf50bf500000000000000000000000000000000000000000000000000000000000000400000000000000000000000000000000000000000000000000000000000000000",
        "nonce": "0x31",
        "chainId": "0x1b58"
      },
      "additionalContracts": [],
      "isFixedGasLimit": false
    }
  ],
  "receipts": [
    {
      "status": "0x1",
      "cumulativeGasUsed": "0xaf739",
      "logs": [
        {
          "address": "0xe65eee518a897618cbee25898f80200e7988c81e",
          "topics": [
            "0xbc7cd75a20ee27fd9adebab32041f755214dbc6bffa90cc0225b39da2e5c2d3b",
            "0x00000000000000000000000080f2fc81d53bcf225e7d679282d525d96bf50bf5"
          ],
          "data": "0x",
          "blockHash": "0x456d880a48094534c2c698a2bfc1368d5726ea3589dbfeb9c415a04479cb6ceb",
          "blockNumber": "0x8f2e81",
          "transactionHash": "0x08aa6104a43a2cbff232156b15c40b2c223b0d64a5a68097f051b3be5427cb3c",
          "transactionIndex": "0x2",
          "logIndex": "0xa",
          "removed": false
        }
      ],
      "logsBloom": "0x00000000000000000000000000000000400000000000000000000010000000000000040000000000000000000000000000000000000000000000000000000000000000000000000000000000000002000000000000000000000000000000000000000000000000000000000000000000000000000000000000000000000000000000000000000000000000000000000000800000000000000000000000000000020000000000000000000000000000000000000000000000000000000400000000100020000000000000000000000000000000000000000000000000000000000000000000000000000000000000000000000000000000000000000000000000",
      "type": "0x2",
      "transactionHash": "0x08aa6104a43a2cbff232156b15c40b2c223b0d64a5a68097f051b3be5427cb3c",
      "transactionIndex": "0x2",
      "blockHash": "0x456d880a48094534c2c698a2bfc1368d5726ea3589dbfeb9c415a04479cb6ceb",
      "blockNumber": "0x8f2e81",
      "gasUsed": "0x844b",
      "effectiveGasPrice": "0x259eae1a0",
      "from": "0xabd10f0a61270d6977c5bfd9d4ec74d6d3bc96ab",
      "to": "0xe65eee518a897618cbee25898f80200e7988c81e",
      "contractAddress": null
    }
  ],
  "libraries": [],
  "pending": [],
  "returns": {},
  "timestamp": 1752521351,
  "chain": 7000,
  "commit": "71068ce"
}