{
  "transactions": [
    {
      "hash": "0x31db9f40b24bbaa3c681012868dc62a77a2d585668e2f4e404b4d7c5b824f715",
      "transactionType": "CALL",
      "contractName": null,
      "contractAddress": "0xe65eee518a897618cbee25898f80200e7988c81e",
      "function": "changeImplementation(address,bytes)",
      "arguments": [
        "0xE3990A03c66F88ddA3970eFdb2146e1D15d95a1e",
        "0x"
      ],
      "transaction": {
        "from": "0xabd10f0a61270d6977c5bfd9d4ec74d6d3bc96ab",
        "to": "0xe65eee518a897618cbee25898f80200e7988c81e",
        "gas": "0xc17a",
        "value": "0x0",
        "input": "0x31124171000000000000000000000000e3990a03c66f88dda3970efdb2146e1d15d95a1e00000000000000000000000000000000000000000000000000000000000000400000000000000000000000000000000000000000000000000000000000000000",
        "nonce": "0x28",
        "chainId": "0x1b58"
      },
      "additionalContracts": [],
      "isFixedGasLimit": false
    }
  ],
  "receipts": [
    {
      "status": "0x1",
      "cumulativeGasUsed": "0x12d3cb",
      "logs": [
        {
          "address": "0xe65eee518a897618cbee25898f80200e7988c81e",
          "topics": [
            "0xbc7cd75a20ee27fd9adebab32041f755214dbc6bffa90cc0225b39da2e5c2d3b",
            "0x000000000000000000000000e3990a03c66f88dda3970efdb2146e1d15d95a1e"
          ],
          "data": "0x",
          "blockHash": "0xf5aae1baf4a7fda0317c55b82ff98b23a296646f29922b43f0e01427cbce07f7",
          "blockNumber": "0x8cd814",
          "transactionHash": "0x31db9f40b24bbaa3c681012868dc62a77a2d585668e2f4e404b4d7c5b824f715",
          "transactionIndex": "0x0",
          "logIndex": "0xc",
          "removed": false
        }
      ],
      "logsBloom": "0x00000000000000000000000000000000400000000000000000000010000000000800040000000000000000004000000000000000000000000000000000000100000000000000000000000000000002000000000000000000000000000000000000000000000000000000000000000000000000000000000000000000000000000000000000000000000000000000000000000000000000000000000000000000000000000000000000000000000000000000000000000000000000000000000000100020000000000000000000000000000000000000000000000000000000000000000000000000000000000000000000000000000000000000000000000000",
      "type": "0x2",
      "transactionHash": "0x31db9f40b24bbaa3c681012868dc62a77a2d585668e2f4e404b4d7c5b824f715",
      "transactionIndex": "0x0",
      "blockHash": "0xf5aae1baf4a7fda0317c55b82ff98b23a296646f29922b43f0e01427cbce07f7",
      "blockNumber": "0x8cd814",
      "gasUsed": "0x844b",
      "effectiveGasPrice": "0x25a01c500",
      "from": "0xabd10f0a61270d6977c5bfd9d4ec74d6d3bc96ab",
      "to": "0xe65eee518a897618cbee25898f80200e7988c81e",
      "contractAddress": null
    }
  ],
  "libraries": [],
  "pending": [],
  "returns": {},
  "timestamp": 1751890769,
  "chain": 7000,
  "commit": "037c13e"
}