{
  "transactions": [
    {
      "hash": "0x3e3df5edaf696065b9b1f50e6f0786d64325893e3c30226234c633635bb8b7d1",
      "transactionType": "CALL",
      "contractName": null,
      "contractAddress": "0xe65eee518a897618cbee25898f80200e7988c81e",
      "function": "changeImplementation(address,bytes)",
      "arguments": [
        "0x708D46908973dd696B2e182deDc5E8F80B42BF26",
        "0xb54d6ef40000000000000000000000000000000000000000000000000000000000000020000000000000000000000000abd10f0a61270d6977c5bfd9d4ec74d6d3bc96ab00000000000000000000000000000000000000000000000000000000000000a00000000000000000000000000000000000000000000000000000000000000100000000000000000000000000000000000000000000000000000000000000016000000000000000000000000000000000000000000000000000000000000001c0000000000000000000000000000000000000000000000000000000000000000200000000000000000000000000000000000000000000000000000000000000000000000000000000000000000000000000000000000000000000000000000001000000000000000000000000000000000000000000000000000000000000000200000000000000000000000000000000000000000000000000000000000000000000000000000000000000000000000000000000000000000000000000000000000000000000000000000000000000000000000000000000000000000000000200000000000000000000000096152e6180e085fa57c7708e18af8f05e37b479d000000000000000000000000fc9201f4116ae6b054722e10b98d904829b469c30000000000000000000000000000000000000000000000000000000000000002000000000000000000000000d4f3ba2fe4183c32a498ad1ecf9fc55308fcc0290000000000000000000000001c60d7075b19c8107dee803272c9d085a0edf775"
      ],
      "transaction": {
        "from": "0xabd10f0a61270d6977c5bfd9d4ec74d6d3bc96ab",
        "to": "0xe65eee518a897618cbee25898f80200e7988c81e",
        "gas": "0x58836",
        "value": "0x0",
        "input": "0x31124171000000000000000000000000708d46908973dd696b2e182dedc5e8f80b42bf2600000000000000000000000000000000000000000000000000000000000000400000000000000000000000000000000000000000000000000000000000000244b54d6ef40000000000000000000000000000000000000000000000000000000000000020000000000000000000000000abd10f0a61270d6977c5bfd9d4ec74d6d3bc96ab00000000000000000000000000000000000000000000000000000000000000a00000000000000000000000000000000000000000000000000000000000000100000000000000000000000000000000000000000000000000000000000000016000000000000000000000000000000000000000000000000000000000000001c0000000000000000000000000000000000000000000000000000000000000000200000000000000000000000000000000000000000000000000000000000000000000000000000000000000000000000000000000000000000000000000000001000000000000000000000000000000000000000000000000000000000000000200000000000000000000000000000000000000000000000000000000000000000000000000000000000000000000000000000000000000000000000000000000000000000000000000000000000000000000000000000000000000000000000200000000000000000000000096152e6180e085fa57c7708e18af8f05e37b479d000000000000000000000000fc9201f4116ae6b054722e10b98d904829b469c30000000000000000000000000000000000000000000000000000000000000002000000000000000000000000d4f3ba2fe4183c32a498ad1ecf9fc55308fcc0290000000000000000000000001c60d7075b19c8107dee803272c9d085a0edf77500000000000000000000000000000000000000000000000000000000",
        "nonce": "0x1e",
        "chainId": "0x1b58"
      },
      "additionalContracts": [],
      "isFixedGasLimit": false
    }
  ],
  "receipts": [
    {
      "status": "0x1",
      "cumulativeGasUsed": "0x1d5141",
      "logs": [
        {
          "address": "0xe65eee518a897618cbee25898f80200e7988c81e",
          "topics": [
            "0xbc7cd75a20ee27fd9adebab32041f755214dbc6bffa90cc0225b39da2e5c2d3b",
            "0x000000000000000000000000708d46908973dd696b2e182dedc5e8f80b42bf26"
          ],
          "data": "0x",
          "blockHash": "0xe2390b8eedc993f77175cabb4fd93e18d10994c3a7356bd5d3f3bd0f9dc2ba04",
          "blockNumber": "0x890c16",
          "transactionHash": "0x3e3df5edaf696065b9b1f50e6f0786d64325893e3c30226234c633635bb8b7d1",
          "transactionIndex": "0x1",
          "logIndex": "0x13",
          "removed": false
        },
        {
          "address": "0xe65eee518a897618cbee25898f80200e7988c81e",
          "topics": [
            "0x4ffd725fc4a22075e9ec71c59edf9c38cdeb588a91b24fc5b61388c5be41282b",
            "0x000000000000000000000000abd10f0a61270d6977c5bfd9d4ec74d6d3bc96ab"
          ],
          "data": "0x",
          "blockHash": "0xe2390b8eedc993f77175cabb4fd93e18d10994c3a7356bd5d3f3bd0f9dc2ba04",
          "blockNumber": "0x890c16",
          "transactionHash": "0x3e3df5edaf696065b9b1f50e6f0786d64325893e3c30226234c633635bb8b7d1",
          "transactionIndex": "0x1",
          "logIndex": "0x14",
          "removed": false
        },
        {
          "address": "0xe65eee518a897618cbee25898f80200e7988c81e",
          "topics": [
            "0xfb1e6d3925a0e12f0fb4271b5a03fcb357c50f924d389986c6f59885308861ec",
            "0x000000000000000000000000d4f3ba2fe4183c32a498ad1ecf9fc55308fcc029"
          ],
          "data": "0x0000000000000000000000000000000000000000000000000000000000000000000000000000000000000000000000000000000000000000000000000000000000000000000000000000000096152e6180e085fa57c7708e18af8f05e37b479d",
          "blockHash": "0xe2390b8eedc993f77175cabb4fd93e18d10994c3a7356bd5d3f3bd0f9dc2ba04",
          "blockNumber": "0x890c16",
          "transactionHash": "0x3e3df5edaf696065b9b1f50e6f0786d64325893e3c30226234c633635bb8b7d1",
          "transactionIndex": "0x1",
          "logIndex": "0x15",
          "removed": false
        },
        {
          "address": "0xe65eee518a897618cbee25898f80200e7988c81e",
          "topics": [
            "0xfb1e6d3925a0e12f0fb4271b5a03fcb357c50f924d389986c6f59885308861ec",
            "0x0000000000000000000000001c60d7075b19c8107dee803272c9d085a0edf775"
          ],
          "data": "0x00000000000000000000000000000000000000000000000000000000000000010000000000000000000000000000000000000000000000000000000000000000000000000000000000000000fc9201f4116ae6b054722e10b98d904829b469c3",
          "blockHash": "0xe2390b8eedc993f77175cabb4fd93e18d10994c3a7356bd5d3f3bd0f9dc2ba04",
          "blockNumber": "0x890c16",
          "transactionHash": "0x3e3df5edaf696065b9b1f50e6f0786d64325893e3c30226234c633635bb8b7d1",
          "transactionIndex": "0x1",
          "logIndex": "0x16",
          "removed": false
        },
        {
          "address": "0x96152e6180e085fa57c7708e18af8f05e37b479d",
          "topics": [
            "0x8c5be1e5ebec7d5bd14f71427d1e84f3dd0314c0f7b2291e5b200ac8c7c3b925",
            "0x000000000000000000000000e65eee518a897618cbee25898f80200e7988c81e",
            "0x000000000000000000000000fedd7a6e3ef1cc470fbfbf955a22d793ddc0f44e"
          ],
          "data": "0xffffffffffffffffffffffffffffffffffffffffffffffffffffffffffffffff",
          "blockHash": "0xe2390b8eedc993f77175cabb4fd93e18d10994c3a7356bd5d3f3bd0f9dc2ba04",
          "blockNumber": "0x890c16",
          "transactionHash": "0x3e3df5edaf696065b9b1f50e6f0786d64325893e3c30226234c633635bb8b7d1",
          "transactionIndex": "0x1",
          "logIndex": "0x17",
          "removed": false
        },
        {
          "address": "0x1de70f3e971b62a0707da18100392af14f7fb677",
          "topics": [
            "0x8c5be1e5ebec7d5bd14f71427d1e84f3dd0314c0f7b2291e5b200ac8c7c3b925",
            "0x000000000000000000000000e65eee518a897618cbee25898f80200e7988c81e",
            "0x000000000000000000000000fedd7a6e3ef1cc470fbfbf955a22d793ddc0f44e"
          ],
          "data": "0xffffffffffffffffffffffffffffffffffffffffffffffffffffffffffffffff",
          "blockHash": "0xe2390b8eedc993f77175cabb4fd93e18d10994c3a7356bd5d3f3bd0f9dc2ba04",
          "blockNumber": "0x890c16",
          "transactionHash": "0x3e3df5edaf696065b9b1f50e6f0786d64325893e3c30226234c633635bb8b7d1",
          "transactionIndex": "0x1",
          "logIndex": "0x18",
          "removed": false
        },
        {
          "address": "0xfc9201f4116ae6b054722e10b98d904829b469c3",
          "topics": [
            "0x8c5be1e5ebec7d5bd14f71427d1e84f3dd0314c0f7b2291e5b200ac8c7c3b925",
            "0x000000000000000000000000e65eee518a897618cbee25898f80200e7988c81e",
            "0x000000000000000000000000fedd7a6e3ef1cc470fbfbf955a22d793ddc0f44e"
          ],
          "data": "0xffffffffffffffffffffffffffffffffffffffffffffffffffffffffffffffff",
          "blockHash": "0xe2390b8eedc993f77175cabb4fd93e18d10994c3a7356bd5d3f3bd0f9dc2ba04",
          "blockNumber": "0x890c16",
          "transactionHash": "0x3e3df5edaf696065b9b1f50e6f0786d64325893e3c30226234c633635bb8b7d1",
          "transactionIndex": "0x1",
          "logIndex": "0x19",
          "removed": false
        },
        {
          "address": "0xadf73eba3ebaa7254e859549a44c74ef7cff7501",
          "topics": [
            "0x8c5be1e5ebec7d5bd14f71427d1e84f3dd0314c0f7b2291e5b200ac8c7c3b925",
            "0x000000000000000000000000e65eee518a897618cbee25898f80200e7988c81e",
            "0x000000000000000000000000fedd7a6e3ef1cc470fbfbf955a22d793ddc0f44e"
          ],
          "data": "0xffffffffffffffffffffffffffffffffffffffffffffffffffffffffffffffff",
          "blockHash": "0xe2390b8eedc993f77175cabb4fd93e18d10994c3a7356bd5d3f3bd0f9dc2ba04",
          "blockNumber": "0x890c16",
          "transactionHash": "0x3e3df5edaf696065b9b1f50e6f0786d64325893e3c30226234c633635bb8b7d1",
          "transactionIndex": "0x1",
          "logIndex": "0x1a",
          "removed": false
        },
        {
          "address": "0xe65eee518a897618cbee25898f80200e7988c81e",
          "topics": [
            "0xc7f505b2f371ae2175ee4913f4499e1f2633a7b5936321eed1cdaeb6115181d2"
          ],
          "data": "0x0000000000000000000000000000000000000000000000000000000000000001",
          "blockHash": "0xe2390b8eedc993f77175cabb4fd93e18d10994c3a7356bd5d3f3bd0f9dc2ba04",
          "blockNumber": "0x890c16",
          "transactionHash": "0x3e3df5edaf696065b9b1f50e6f0786d64325893e3c30226234c633635bb8b7d1",
          "transactionIndex": "0x1",
          "logIndex": "0x1b",
          "removed": false
        }
      ],
      "logsBloom": "0x00080002000000080020000020000000400000000000000000000010000000000000048000000000000005000000000000000400000000000020000000201000000000000000004000000800000002000000000000000000001000000000000000000000000000040000200000000000000000000000000000000000000200004008020000000000000800000000000000000000000080000001000000000001020000002000000000000000000000000020000000000000000000004002000000100020000000000011000000000000008000000044040000000000000000000011800000300000000000000010000000000000000000000000000000000000",
      "type": "0x2",
      "transactionHash": "0x3e3df5edaf696065b9b1f50e6f0786d64325893e3c30226234c633635bb8b7d1",
      "transactionIndex": "0x1",
      "blockHash": "0xe2390b8eedc993f77175cabb4fd93e18d10994c3a7356bd5d3f3bd0f9dc2ba04",
      "blockNumber": "0x890c16",
      "gasUsed": "0x40150",
      "effectiveGasPrice": "0x25a01c500",
      "from": "0xabd10f0a61270d6977c5bfd9d4ec74d6d3bc96ab",
      "to": "0xe65eee518a897618cbee25898f80200e7988c81e",
      "contractAddress": null
    }
  ],
  "libraries": [],
  "pending": [],
  "returns": {},
  "timestamp": 1750862824,
  "chain": 7000,
  "commit": "6391963"
}