{
  "transactions": [
    {
      "hash": "0xa5af5ef16db185690c35376cb7702f19bd89f2c63cca8d91ad1243f7fd268251",
      "transactionType": "CALL",
      "contractName": null,
      "contractAddress": "0xe65eee518a897618cbee25898f80200e7988c81e",
      "function": "changeImplementation(address,bytes)",
      "arguments": [
        "0x3AD12d19cD324631A0A72cdc079c5041DEF3e9ab",
        "0x472d83310000000000000000000000000000000000000000000000000000000000000020000000000000000000000000000000000000000000000000000000000000000200000000000000000000000000000000000000000000000000000000000000e00000000000000000000000000000000000000000000000000000000000000120000000000000000000000000000000000000000000000000000000000000016000000000000000000000000000000000000000000000000000000000000001a000000000000000000000000000000000000000000000000000000000000001e000000000000000000000000000000000000000000000000000000000000002200000000000000000000000000000000000000000000000000000000000000001000000000000000000000000000000000000000000000000000000000000003800000000000000000000000000000000000000000000000000000000000000010000000000000000000000000000000000000000000000000000000000000000000000000000000000000000000000000000000000000000000000000000000100000000000000000000000005ba149a7bd6dc1f937fa9046a9e05c05f3b18b00000000000000000000000000000000000000000000000000000000000000001000000000000000000000000cb513db80c6c76593770fc4a1827d5ab8186b0cd00000000000000000000000000000000000000000000000000000000000000010000000000000000000000000000000000000000000000000000000000000038000000000000000000000000000000000000000000000000000000000000000100000000000000000000000033cb07ca2d83298dc4ee9efa5b0c421632b15b11"
      ],
      "transaction": {
        "from": "0xabd10f0a61270d6977c5bfd9d4ec74d6d3bc96ab",
        "to": "0xe65eee518a897618cbee25898f80200e7988c81e",
        "gas": "0x35673",
        "value": "0x0",
        "input": "0x311241710000000000000000000000003ad12d19cd324631a0a72cdc079c5041def3e9ab00000000000000000000000000000000000000000000000000000000000000400000000000000000000000000000000000000000000000000000000000000284472d83310000000000000000000000000000000000000000000000000000000000000020000000000000000000000000000000000000000000000000000000000000000200000000000000000000000000000000000000000000000000000000000000e00000000000000000000000000000000000000000000000000000000000000120000000000000000000000000000000000000000000000000000000000000016000000000000000000000000000000000000000000000000000000000000001a000000000000000000000000000000000000000000000000000000000000001e000000000000000000000000000000000000000000000000000000000000002200000000000000000000000000000000000000000000000000000000000000001000000000000000000000000000000000000000000000000000000000000003800000000000000000000000000000000000000000000000000000000000000010000000000000000000000000000000000000000000000000000000000000000000000000000000000000000000000000000000000000000000000000000000100000000000000000000000005ba149a7bd6dc1f937fa9046a9e05c05f3b18b00000000000000000000000000000000000000000000000000000000000000001000000000000000000000000cb513db80c6c76593770fc4a1827d5ab8186b0cd00000000000000000000000000000000000000000000000000000000000000010000000000000000000000000000000000000000000000000000000000000038000000000000000000000000000000000000000000000000000000000000000100000000000000000000000033cb07ca2d83298dc4ee9efa5b0c421632b15b1100000000000000000000000000000000000000000000000000000000",
        "nonce": "0x2f",
        "chainId": "0x1b58"
      },
      "additionalContracts": [],
      "isFixedGasLimit": false
    }
  ],
  "receipts": [
    {
      "status": "0x1",
      "cumulativeGasUsed": "0x152aec",
      "logs": [
        {
          "address": "0xe65eee518a897618cbee25898f80200e7988c81e",
          "topics": [
            "0xbc7cd75a20ee27fd9adebab32041f755214dbc6bffa90cc0225b39da2e5c2d3b",
            "0x0000000000000000000000003ad12d19cd324631a0a72cdc079c5041def3e9ab"
          ],
          "data": "0x",
          "blockHash": "0xe44a13f2c054972e92b0acc61d817406918fb28369e9b718669adbca660e3561",
          "blockNumber": "0x8f254c",
          "transactionHash": "0xa5af5ef16db185690c35376cb7702f19bd89f2c63cca8d91ad1243f7fd268251",
          "transactionIndex": "0x1",
          "logIndex": "0xd",
          "removed": false
        },
        {
          "address": "0xe65eee518a897618cbee25898f80200e7988c81e",
          "topics": [
            "0x5cc5a7dcb918473b3e54e9788cbe8408a47d668cf780c62f44b45dd43c4efbb4",
            "0x000000000000000000000000cb513db80c6c76593770fc4a1827d5ab8186b0cd"
          ],
          "data": "0x0000000000000000000000000000000000000000000000000000000000000038000000000000000000000000000000000000000000000000000000000000000000000000000000000000000005ba149a7bd6dc1f937fa9046a9e05c05f3b18b0",
          "blockHash": "0xe44a13f2c054972e92b0acc61d817406918fb28369e9b718669adbca660e3561",
          "blockNumber": "0x8f254c",
          "transactionHash": "0xa5af5ef16db185690c35376cb7702f19bd89f2c63cca8d91ad1243f7fd268251",
          "transactionIndex": "0x1",
          "logIndex": "0xe",
          "removed": false
        },
        {
          "address": "0xe65eee518a897618cbee25898f80200e7988c81e",
          "topics": [
            "0xa8cfe0a5ba99d721068e2cfdb8251c8666c33fc898561ab9b5c4ef3d3a387d24",
            "0x0000000000000000000000000000000000000000000000000000000000000038",
            "0x00000000000000000000000033cb07ca2d83298dc4ee9efa5b0c421632b15b11"
          ],
          "data": "0x",
          "blockHash": "0xe44a13f2c054972e92b0acc61d817406918fb28369e9b718669adbca660e3561",
          "blockNumber": "0x8f254c",
          "transactionHash": "0xa5af5ef16db185690c35376cb7702f19bd89f2c63cca8d91ad1243f7fd268251",
          "transactionIndex": "0x1",
          "logIndex": "0xf",
          "removed": false
        },
        {
          "address": "0x05ba149a7bd6dc1f937fa9046a9e05c05f3b18b0",
          "topics": [
            "0x8c5be1e5ebec7d5bd14f71427d1e84f3dd0314c0f7b2291e5b200ac8c7c3b925",
            "0x000000000000000000000000e65eee518a897618cbee25898f80200e7988c81e",
            "0x000000000000000000000000fedd7a6e3ef1cc470fbfbf955a22d793ddc0f44e"
          ],
          "data": "0xffffffffffffffffffffffffffffffffffffffffffffffffffffffffffffffff",
          "blockHash": "0xe44a13f2c054972e92b0acc61d817406918fb28369e9b718669adbca660e3561",
          "blockNumber": "0x8f254c",
          "transactionHash": "0xa5af5ef16db185690c35376cb7702f19bd89f2c63cca8d91ad1243f7fd268251",
          "transactionIndex": "0x1",
          "logIndex": "0x10",
          "removed": false
        },
        {
          "address": "0x48f80608b672dc30dc7e3dbbd0343c5f02c738eb",
          "topics": [
            "0x8c5be1e5ebec7d5bd14f71427d1e84f3dd0314c0f7b2291e5b200ac8c7c3b925",
            "0x000000000000000000000000e65eee518a897618cbee25898f80200e7988c81e",
            "0x000000000000000000000000fedd7a6e3ef1cc470fbfbf955a22d793ddc0f44e"
          ],
          "data": "0xffffffffffffffffffffffffffffffffffffffffffffffffffffffffffffffff",
          "blockHash": "0xe44a13f2c054972e92b0acc61d817406918fb28369e9b718669adbca660e3561",
          "blockNumber": "0x8f254c",
          "transactionHash": "0xa5af5ef16db185690c35376cb7702f19bd89f2c63cca8d91ad1243f7fd268251",
          "transactionIndex": "0x1",
          "logIndex": "0x11",
          "removed": false
        },
        {
          "address": "0xe65eee518a897618cbee25898f80200e7988c81e",
          "topics": [
            "0xc7f505b2f371ae2175ee4913f4499e1f2633a7b5936321eed1cdaeb6115181d2"
          ],
          "data": "0x0000000000000000000000000000000000000000000000000000000000000002",
          "blockHash": "0xe44a13f2c054972e92b0acc61d817406918fb28369e9b718669adbca660e3561",
          "blockNumber": "0x8f254c",
          "transactionHash": "0xa5af5ef16db185690c35376cb7702f19bd89f2c63cca8d91ad1243f7fd268251",
          "transactionIndex": "0x1",
          "logIndex": "0x12",
          "removed": false
        }
      ],
      "logsBloom": "0x00000000000000000000000000000000400000000000000000000010000000000000040000000000000020000010000000000000000000000000004000200000800000000000000000000804000002000000000000000000000000000000000000000000000000000001000000000010040000002000000000000000000000000000000100000000001800000000000000000000000080040140100000000001020000000000000000000000000002000000000000000000000400004000000000100020000020000001000000000000000000000004000000000000000000001010800000100001000000000002000000000000000000004201000000000000",
      "type": "0x2",
      "transactionHash": "0xa5af5ef16db185690c35376cb7702f19bd89f2c63cca8d91ad1243f7fd268251",
      "transactionIndex": "0x1",
      "blockHash": "0xe44a13f2c054972e92b0acc61d817406918fb28369e9b718669adbca660e3561",
      "blockNumber": "0x8f254c",
      "gasUsed": "0x26a9c",
      "effectiveGasPrice": "0x2540d6aa0",
      "from": "0xabd10f0a61270d6977c5bfd9d4ec74d6d3bc96ab",
      "to": "0xe65eee518a897618cbee25898f80200e7988c81e",
      "contractAddress": null
    }
  ],
  "libraries": [],
  "pending": [],
  "returns": {},
  "timestamp": 1752511736,
  "chain": 7000,
  "commit": "e26ff71"
}