{
  "transactions": [
    {
      "hash": "0x8ba18a7c249c6419c00b23617cae5e9b14ea8dac4593247f25e1ef0acb4ed28f",
      "transactionType": "CALL",
      "contractName": null,
      "contractAddress": "0xe65eee518a897618cbee25898f80200e7988c81e",
      "function": "changeImplementation(address,bytes)",
      "arguments": [
        "0x9F6dAa6ba987663c3bed16989E317b4Fc5Cc94d0",
        "0x8e32d1b20000000000000000000000000000000000000000000000000000000000000020000000000000000000000000000000000000000000000000000000000000000300000000000000000000000000000000000000000000000000000000000000400000000000000000000000000000000000000000000000000000000000000003000000000000000000000000000000000000000000000000000000000000210500000000000000000000000000000000000000000000000000000000000000890000000000000000000000000000000000000000000000000000000000000038"
      ],
      "transaction": {
        "from": "0xabd10f0a61270d6977c5bfd9d4ec74d6d3bc96ab",
        "to": "0xe65eee518a897618cbee25898f80200e7988c81e",
        "gas": "0x1dcf6",
        "value": "0x0",
        "input": "0x311241710000000000000000000000009f6daa6ba987663c3bed16989e317b4fc5cc94d0000000000000000000000000000000000000000000000000000000000000004000000000000000000000000000000000000000000000000000000000000000e48e32d1b2000000000000000000000000000000000000000000000000000000000000002000000000000000000000000000000000000000000000000000000000000000030000000000000000000000000000000000000000000000000000000000000040000000000000000000000000000000000000000000000000000000000000000300000000000000000000000000000000000000000000000000000000000021050000000000000000000000000000000000000000000000000000000000000089000000000000000000000000000000000000000000000000000000000000003800000000000000000000000000000000000000000000000000000000",
        "nonce": "0x46",
        "chainId": "0x1b58"
      },
      "additionalContracts": [],
      "isFixedGasLimit": false
    }
  ],
  "receipts": [
    {
      "status": "0x1",
      "cumulativeGasUsed": "0x5b7055",
      "logs": [
        {
          "address": "0xe65eee518a897618cbee25898f80200e7988c81e",
          "topics": [
            "0xbc7cd75a20ee27fd9adebab32041f755214dbc6bffa90cc0225b39da2e5c2d3b",
            "0x0000000000000000000000009f6daa6ba987663c3bed16989e317b4fc5cc94d0"
          ],
          "data": "0x",
          "blockHash": "0x1c9291ec396d64efec6721833482297b0a0e353912d6629e59069adb1208654c",
          "blockNumber": "0xa7f1cb",
          "transactionHash": "0x8ba18a7c249c6419c00b23617cae5e9b14ea8dac4593247f25e1ef0acb4ed28f",
          "transactionIndex": "0x5b",
          "logIndex": "0x5b",
          "removed": false
        },
        {
          "address": "0x96152e6180e085fa57c7708e18af8f05e37b479d",
          "topics": [
            "0x8c5be1e5ebec7d5bd14f71427d1e84f3dd0314c0f7b2291e5b200ac8c7c3b925",
            "0x000000000000000000000000e65eee518a897618cbee25898f80200e7988c81e",
            "0x000000000000000000000000fedd7a6e3ef1cc470fbfbf955a22d793ddc0f44e"
          ],
          "data": "0x0000000000000000000000000000000000000000000000000000000000000000",
          "blockHash": "0x1c9291ec396d64efec6721833482297b0a0e353912d6629e59069adb1208654c",
          "blockNumber": "0xa7f1cb",
          "transactionHash": "0x8ba18a7c249c6419c00b23617cae5e9b14ea8dac4593247f25e1ef0acb4ed28f",
          "transactionIndex": "0x5b",
          "logIndex": "0x5c",
          "removed": false
        },
        {
          "address": "0x1de70f3e971b62a0707da18100392af14f7fb677",
          "topics": [
            "0x8c5be1e5ebec7d5bd14f71427d1e84f3dd0314c0f7b2291e5b200ac8c7c3b925",
            "0x000000000000000000000000e65eee518a897618cbee25898f80200e7988c81e",
            "0x000000000000000000000000fedd7a6e3ef1cc470fbfbf955a22d793ddc0f44e"
          ],
          "data": "0x0000000000000000000000000000000000000000000000000000000000000000",
          "blockHash": "0x1c9291ec396d64efec6721833482297b0a0e353912d6629e59069adb1208654c",
          "blockNumber": "0xa7f1cb",
          "transactionHash": "0x8ba18a7c249c6419c00b23617cae5e9b14ea8dac4593247f25e1ef0acb4ed28f",
          "transactionIndex": "0x5b",
          "logIndex": "0x5d",
          "removed": false
        },
        {
          "address": "0xfc9201f4116ae6b054722e10b98d904829b469c3",
          "topics": [
            "0x8c5be1e5ebec7d5bd14f71427d1e84f3dd0314c0f7b2291e5b200ac8c7c3b925",
            "0x000000000000000000000000e65eee518a897618cbee25898f80200e7988c81e",
            "0x000000000000000000000000fedd7a6e3ef1cc470fbfbf955a22d793ddc0f44e"
          ],
          "data": "0x0000000000000000000000000000000000000000000000000000000000000000",
          "blockHash": "0x1c9291ec396d64efec6721833482297b0a0e353912d6629e59069adb1208654c",
          "blockNumber": "0xa7f1cb",
          "transactionHash": "0x8ba18a7c249c6419c00b23617cae5e9b14ea8dac4593247f25e1ef0acb4ed28f",
          "transactionIndex": "0x5b",
          "logIndex": "0x5e",
          "removed": false
        },
        {
          "address": "0xadf73eba3ebaa7254e859549a44c74ef7cff7501",
          "topics": [
            "0x8c5be1e5ebec7d5bd14f71427d1e84f3dd0314c0f7b2291e5b200ac8c7c3b925",
            "0x000000000000000000000000e65eee518a897618cbee25898f80200e7988c81e",
            "0x000000000000000000000000fedd7a6e3ef1cc470fbfbf955a22d793ddc0f44e"
          ],
          "data": "0x0000000000000000000000000000000000000000000000000000000000000000",
          "blockHash": "0x1c9291ec396d64efec6721833482297b0a0e353912d6629e59069adb1208654c",
          "blockNumber": "0xa7f1cb",
          "transactionHash": "0x8ba18a7c249c6419c00b23617cae5e9b14ea8dac4593247f25e1ef0acb4ed28f",
          "transactionIndex": "0x5b",
          "logIndex": "0x5f",
          "removed": false
        },
        {
          "address": "0x05ba149a7bd6dc1f937fa9046a9e05c05f3b18b0",
          "topics": [
            "0x8c5be1e5ebec7d5bd14f71427d1e84f3dd0314c0f7b2291e5b200ac8c7c3b925",
            "0x000000000000000000000000e65eee518a897618cbee25898f80200e7988c81e",
            "0x000000000000000000000000fedd7a6e3ef1cc470fbfbf955a22d793ddc0f44e"
          ],
          "data": "0x0000000000000000000000000000000000000000000000000000000000000000",
          "blockHash": "0x1c9291ec396d64efec6721833482297b0a0e353912d6629e59069adb1208654c",
          "blockNumber": "0xa7f1cb",
          "transactionHash": "0x8ba18a7c249c6419c00b23617cae5e9b14ea8dac4593247f25e1ef0acb4ed28f",
          "transactionIndex": "0x5b",
          "logIndex": "0x60",
          "removed": false
        },
        {
          "address": "0x48f80608b672dc30dc7e3dbbd0343c5f02c738eb",
          "topics": [
            "0x8c5be1e5ebec7d5bd14f71427d1e84f3dd0314c0f7b2291e5b200ac8c7c3b925",
            "0x000000000000000000000000e65eee518a897618cbee25898f80200e7988c81e",
            "0x000000000000000000000000fedd7a6e3ef1cc470fbfbf955a22d793ddc0f44e"
          ],
          "data": "0x0000000000000000000000000000000000000000000000000000000000000000",
          "blockHash": "0x1c9291ec396d64efec6721833482297b0a0e353912d6629e59069adb1208654c",
          "blockNumber": "0xa7f1cb",
          "transactionHash": "0x8ba18a7c249c6419c00b23617cae5e9b14ea8dac4593247f25e1ef0acb4ed28f",
          "transactionIndex": "0x5b",
          "logIndex": "0x61",
          "removed": false
        },
        {
          "address": "0xe65eee518a897618cbee25898f80200e7988c81e",
          "topics": [
            "0xc7f505b2f371ae2175ee4913f4499e1f2633a7b5936321eed1cdaeb6115181d2"
          ],
          "data": "0x0000000000000000000000000000000000000000000000000000000000000003",
          "blockHash": "0x1c9291ec396d64efec6721833482297b0a0e353912d6629e59069adb1208654c",
          "blockNumber": "0xa7f1cb",
          "transactionHash": "0x8ba18a7c249c6419c00b23617cae5e9b14ea8dac4593247f25e1ef0acb4ed28f",
          "transactionIndex": "0x5b",
          "logIndex": "0x62",
          "removed": false
        }
      ],
      "logsBloom": "0x00080000000000000020000000000000400000000000000000000010000000000000040000000000002005000000000000000000000000000000000000200002000000000000000000000800000002000000000400000000001000000000000000000000000000000000000000000000000000000000000000000000000000000008000100000000000800000000000000000000000080000141100000000001020000002000000000000000000002000020000000000000000000004000000000100020000000000001000000000000000000000044000000000000000000000010800000300000000000000012000000000000000000000000000000000000",
      "type": "0x2",
      "transactionHash": "0x8ba18a7c249c6419c00b23617cae5e9b14ea8dac4593247f25e1ef0acb4ed28f",
      "transactionIndex": "0x5b",
      "blockHash": "0x1c9291ec396d64efec6721833482297b0a0e353912d6629e59069adb1208654c",
      "blockNumber": "0xa7f1cb",
      "gasUsed": "0x15950",
      "effectiveGasPrice": "0x25a01c500",
      "from": "0xabd10f0a61270d6977c5bfd9d4ec74d6d3bc96ab",
      "to": "0xe65eee518a897618cbee25898f80200e7988c81e",
      "contractAddress": null
    }
  ],
  "libraries": [],
  "pending": [],
  "returns": {},
  "timestamp": 1759240782785,
  "chain": 7000,
  "commit": "5e16dc2"
}