{
  "transactions": [
    {
      "hash": "0x1e9232e2787065019391aaeb16472614470a90ccdbbc09f869f6e023972af067",
      "transactionType": "CALL",
      "contractName": null,
      "contractAddress": "0xe65eee518a897618cbee25898f80200e7988c81e",
      "function": "changeImplementation(address,bytes)",
      "arguments": [
        "0x999ab3e9896385BEfD0B1d37BfEAf0c8DcC5b2c6",
        "0x"
      ],
      "transaction": {
        "from": "0xabd10f0a61270d6977c5bfd9d4ec74d6d3bc96ab",
        "to": "0xe65eee518a897618cbee25898f80200e7988c81e",
        "gas": "0xc17a",
        "value": "0x0",
        "input": "0x31124171000000000000000000000000999ab3e9896385befd0b1d37bfeaf0c8dcc5b2c600000000000000000000000000000000000000000000000000000000000000400000000000000000000000000000000000000000000000000000000000000000",
        "nonce": "0x33",
        "chainId": "0x1b58"
      },
      "additionalContracts": [],
      "isFixedGasLimit": false
    }
  ],
  "receipts": [
    {
      "status": "0x1",
      "cumulativeGasUsed": "0x1a93cb",
      "logs": [
        {
          "address": "0xe65eee518a897618cbee25898f80200e7988c81e",
          "topics": [
            "0xbc7cd75a20ee27fd9adebab32041f755214dbc6bffa90cc0225b39da2e5c2d3b",
            "0x000000000000000000000000999ab3e9896385befd0b1d37bfeaf0c8dcc5b2c6"
          ],
          "data": "0x",
          "blockHash": "0xb4013f6f684908ce2bc4f3491d527acf366f4b3af2f3cd4cf5a6d24fb1009ed1",
          "blockNumber": "0x8f2f1a",
          "transactionHash": "0x1e9232e2787065019391aaeb16472614470a90ccdbbc09f869f6e023972af067",
          "transactionIndex": "0x3",
          "logIndex": "0x13",
          "removed": false
        }
      ],
      "logsBloom": "0x00000000000000001000000000000000400000000000000000000010000000000000040000000000000000000000000000000000000000000000000000000000000000000000000000000000000002000000000000000000000000000000000000000400000000000000000000000000000000000000000000000000000000000000000000000000000000000000000000000000000000000000000000000000000000000000000000000000000000000000000000000000000000000000100000100020000000000000000000000000000000000000000000000000000000000000000000000000000000000000000000000000000000000000000000000000",
      "type": "0x2",
      "transactionHash": "0x1e9232e2787065019391aaeb16472614470a90ccdbbc09f869f6e023972af067",
      "transactionIndex": "0x3",
      "blockHash": "0xb4013f6f684908ce2bc4f3491d527acf366f4b3af2f3cd4cf5a6d24fb1009ed1",
      "blockNumber": "0x8f2f1a",
      "gasUsed": "0x844b",
      "effectiveGasPrice": "0x259eae1a0",
      "from": "0xabd10f0a61270d6977c5bfd9d4ec74d6d3bc96ab",
      "to": "0xe65eee518a897618cbee25898f80200e7988c81e",
      "contractAddress": null
    }
  ],
  "libraries": [],
  "pending": [],
  "returns": {},
  "timestamp": 1752521989,
  "chain": 7000,
  "commit": "8765c6b"
}