{
  "transactions": [
    {
      "hash": "0xc909e2058c5aab3f8652e0727fd170e28857e54b8168dec3058f1f3201795f96",
      "transactionType": "CALL",
      "contractName": null,
      "contractAddress": "0xe65eee518a897618cbee25898f80200e7988c81e",
      "function": "changeImplementation(address,bytes)",
      "arguments": [
        "0x3E2f2df43Ab87781F5656ffe2E0E06fF0c8e7843",
        "0x"
      ],
      "transaction": {
        "from": "0xabd10f0a61270d6977c5bfd9d4ec74d6d3bc96ab",
        "to": "0xe65eee518a897618cbee25898f80200e7988c81e",
        "gas": "0xc17a",
        "value": "0x0",
        "input": "0x311241710000000000000000000000003e2f2df43ab87781f5656ffe2e0e06ff0c8e784300000000000000000000000000000000000000000000000000000000000000400000000000000000000000000000000000000000000000000000000000000000",
        "nonce": "0x35",
        "chainId": "0x1b58"
      },
      "additionalContracts": [],
      "isFixedGasLimit": false
    }
  ],
  "receipts": [
    {
      "status": "0x1",
      "cumulativeGasUsed": "0x844b",
      "logs": [
        {
          "address": "0xe65eee518a897618cbee25898f80200e7988c81e",
          "topics": [
            "0xbc7cd75a20ee27fd9adebab32041f755214dbc6bffa90cc0225b39da2e5c2d3b",
            "0x0000000000000000000000003e2f2df43ab87781f5656ffe2e0e06ff0c8e7843"
          ],
          "data": "0x",
          "blockHash": "0x6b7b91c89052913c705cec358edbbf54ae77ee0562f5815ebd138712151dbc8e",
          "blockNumber": "0x8f6bea",
          "transactionHash": "0xc909e2058c5aab3f8652e0727fd170e28857e54b8168dec3058f1f3201795f96",
          "transactionIndex": "0x0",
          "logIndex": "0x0",
          "removed": false
        }
      ],
      "logsBloom": "0x00000000000000000000000000000000400000000000000000000010000000000000040000000000000000000000000000000000000000000000000000000000000000000000000000000000000002000010000000000000000000000400000000000000000000000000000000000000000000000000000000000000000000000000000000000000000000000000000000000000000000000000000000000000000000000000000000000000000000000000000000000002000000000000000000100020000000000000000000000000000000000000000000000000000000000000000000000000000000000000000000000000000000000000000000000000",
      "type": "0x2",
      "transactionHash": "0xc909e2058c5aab3f8652e0727fd170e28857e54b8168dec3058f1f3201795f96",
      "transactionIndex": "0x0",
      "blockHash": "0x6b7b91c89052913c705cec358edbbf54ae77ee0562f5815ebd138712151dbc8e",
      "blockNumber": "0x8f6bea",
      "gasUsed": "0x844b",
      "effectiveGasPrice": "0x25a812e30",
      "from": "0xabd10f0a61270d6977c5bfd9d4ec74d6d3bc96ab",
      "to": "0xe65eee518a897618cbee25898f80200e7988c81e",
      "contractAddress": null
    }
  ],
  "libraries": [],
  "pending": [],
  "returns": {},
  "timestamp": 1752585875,
  "chain": 7000,
  "commit": "5b06d70"
}