{
  "transactions": [
    {
      "hash": "0x4eb5b5d7ea67c8d7bdf82056c0225edb213ee977b45b7c0768921d2adc60d462",
      "transactionType": "CALL",
      "contractName": null,
      "contractAddress": "0xe65eee518a897618cbee25898f80200e7988c81e",
      "function": "changeImplementation(address,bytes)",
      "arguments": [
        "0xBf0b503d6739278f69D989f62D3D129A1f4C265b",
        "0x"
      ],
      "transaction": {
        "from": "0xabd10f0a61270d6977c5bfd9d4ec74d6d3bc96ab",
        "to": "0xe65eee518a897618cbee25898f80200e7988c81e",
        "gas": "0xc17a",
        "value": "0x0",
        "input": "0x31124171000000000000000000000000bf0b503d6739278f69d989f62d3d129a1f4c265b00000000000000000000000000000000000000000000000000000000000000400000000000000000000000000000000000000000000000000000000000000000",
        "nonce": "0x26",
        "chainId": "0x1b58"
      },
      "additionalContracts": [],
      "isFixedGasLimit": false
    }
  ],
  "receipts": [
    {
      "status": "0x1",
      "cumulativeGasUsed": "0x109afe",
      "logs": [
        {
          "address": "0xe65eee518a897618cbee25898f80200e7988c81e",
          "topics": [
            "0xbc7cd75a20ee27fd9adebab32041f755214dbc6bffa90cc0225b39da2e5c2d3b",
            "0x000000000000000000000000bf0b503d6739278f69d989f62d3d129a1f4c265b"
          ],
          "data": "0x",
          "blockHash": "0x2a6ff157938ee2da0daca919cc6327d36d88c9f754b19ee6c89a206006bdf019",
          "blockNumber": "0x89a6cf",
          "transactionHash": "0x4eb5b5d7ea67c8d7bdf82056c0225edb213ee977b45b7c0768921d2adc60d462",
          "transactionIndex": "0x1",
          "logIndex": "0xe",
          "removed": false
        }
      ],
      "logsBloom": "0x00000000000000000000000000000000400000000000000000000010000000000000040000000000000000000000000000000000000000000000000000000000000000000000000000000000000002000000000000000000000000000000000000000000000000000000000000000000000000000002000000000000040000000000000000000000000000000000000000000000000000000000000000000000000000000000000000000000000000000000000000000000000000000000000000100020000040000000000000000000000000000000000000000000000000000000000000000000000000000000000000000000000000000000000000000000",
      "type": "0x2",
      "transactionHash": "0x4eb5b5d7ea67c8d7bdf82056c0225edb213ee977b45b7c0768921d2adc60d462",
      "transactionIndex": "0x1",
      "blockHash": "0x2a6ff157938ee2da0daca919cc6327d36d88c9f754b19ee6c89a206006bdf019",
      "blockNumber": "0x89a6cf",
      "gasUsed": "0x844b",
      "effectiveGasPrice": "0x25a01c500",
      "from": "0xabd10f0a61270d6977c5bfd9d4ec74d6d3bc96ab",
      "to": "0xe65eee518a897618cbee25898f80200e7988c81e",
      "contractAddress": null
    }
  ],
  "libraries": [],
  "pending": [],
  "returns": {},
  "timestamp": 1751029635,
  "chain": 7000,
  "commit": "040b0a8"
}