{
  "transactions": [
    {
      "hash": "0x94b908d6eb03777debb1583b586357e3cf84e0b02aeef432ec8a9bac4bcf516c",
      "transactionType": "CALL",
      "contractName": null,
      "contractAddress": "0xe65eee518a897618cbee25898f80200e7988c81e",
      "function": "changeImplementation(address,bytes)",
      "arguments": [
        "0x20378cdb68e91C7A35a207a5bC5cF9e4f1d942f4",
        "0x"
      ],
      "transaction": {
        "from": "0xabd10f0a61270d6977c5bfd9d4ec74d6d3bc96ab",
        "to": "0xe65eee518a897618cbee25898f80200e7988c81e",
        "gas": "0xc17a",
        "value": "0x0",
        "input": "0x3112417100000000000000000000000020378cdb68e91c7a35a207a5bc5cf9e4f1d942f400000000000000000000000000000000000000000000000000000000000000400000000000000000000000000000000000000000000000000000000000000000",
        "nonce": "0x37",
        "chainId": "0x1b58"
      },
      "additionalContracts": [],
      "isFixedGasLimit": false
    }
  ],
  "receipts": [
    {
      "status": "0x1",
      "cumulativeGasUsed": "0x718ac",
      "logs": [
        {
          "address": "0xe65eee518a897618cbee25898f80200e7988c81e",
          "topics": [
            "0xbc7cd75a20ee27fd9adebab32041f755214dbc6bffa90cc0225b39da2e5c2d3b",
            "0x00000000000000000000000020378cdb68e91c7a35a207a5bc5cf9e4f1d942f4"
          ],
          "data": "0x",
          "blockHash": "0xf8ae86065b174bac34cd9bda7cd01c14ca76312e3e35622bd2ef6d23b1cc3b1d",
          "blockNumber": "0x9258ea",
          "transactionHash": "0x94b908d6eb03777debb1583b586357e3cf84e0b02aeef432ec8a9bac4bcf516c",
          "transactionIndex": "0x0",
          "logIndex": "0x3",
          "removed": false
        }
      ],
      "logsBloom": "0x00000000000000000000000000000000400000000000000000000010000000000000040000000000000001000000000000000000000000000000000000000000000000000000000000000000000002000000000000000000000000000000000000000000000000000000000000000000000000000000000000000000000000000000000000000000000000000000000000000000000000000000000000000000000000000000004000000000000000000000000000000000000000000000000000100020000000000000000000000000000000000000000000000000000000000000000000000000020000000000000000000000000000000000000000000000",
      "type": "0x2",
      "transactionHash": "0x94b908d6eb03777debb1583b586357e3cf84e0b02aeef432ec8a9bac4bcf516c",
      "transactionIndex": "0x0",
      "blockHash": "0xf8ae86065b174bac34cd9bda7cd01c14ca76312e3e35622bd2ef6d23b1cc3b1d",
      "blockNumber": "0x9258ea",
      "gasUsed": "0x844b",
      "effectiveGasPrice": "0x278b40bc0",
      "from": "0xabd10f0a61270d6977c5bfd9d4ec74d6d3bc96ab",
      "to": "0xe65eee518a897618cbee25898f80200e7988c81e",
      "contractAddress": null
    }
  ],
  "libraries": [],
  "pending": [],
  "returns": {},
  "timestamp": 1753365891,
  "chain": 7000,
  "commit": "2e27aba"
}