{
  "transactions": [
    {
      "hash": "0x14b2085abc9d8276bc9692c65b721cb30cd643b483e4a3853feb4ef457e2727b",
      "transactionType": "CALL",
      "contractName": "ProxyBase",
      "contractAddress": "0xd4f3ba2fe4183c32a498ad1ecf9fc55308fcc029",
      "function": "changeImplementation(address,bytes)",
      "arguments": [
        "0x862f46d57B3aa0FD3592D2DbA8Ea1cA4A11e846E",
        "0x"
      ],
      "transaction": {
        "from": "0xabd10f0a61270d6977c5bfd9d4ec74d6d3bc96ab",
        "to": "0xd4f3ba2fe4183c32a498ad1ecf9fc55308fcc029",
        "gas": "0xb69d",
        "value": "0x0",
        "input": "0x31124171000000000000000000000000862f46d57b3aa0fd3592d2dba8ea1ca4a11e846e00000000000000000000000000000000000000000000000000000000000000400000000000000000000000000000000000000000000000000000000000000000",
        "nonce": "0x12",
        "chainId": "0x2105"
      },
      "additionalContracts": [],
      "isFixedGasLimit": false
    }
  ],
  "receipts": [
    {
      "status": "0x1",
      "cumulativeGasUsed": "0x10865eb",
      "logs": [
        {
          "address": "0xd4f3ba2fe4183c32a498ad1ecf9fc55308fcc029",
          "topics": [
            "0xbc7cd75a20ee27fd9adebab32041f755214dbc6bffa90cc0225b39da2e5c2d3b",
            "0x000000000000000000000000862f46d57b3aa0fd3592d2dba8ea1ca4a11e846e"
          ],
          "data": "0x",
          "blockHash": "0xb1b858ba0441658fda781372f81634bfdafb951bdf392e3b8ccac97c4ecf0812",
          "blockNumber": "0x1f0ae06",
          "blockTimestamp": "0x686bb8ef",
          "transactionHash": "0x14b2085abc9d8276bc9692c65b721cb30cd643b483e4a3853feb4ef457e2727b",
          "transactionIndex": "0x56",
          "logIndex": "0xdd",
          "removed": false
        }
      ],
      "logsBloom": "0x00000000000000000000000000000000400000000000000000000002000000000000000000000000000000000000000000000000000000000000000000000000000000000000000000000000000002000000000000000000000000000000000100000000000000000000000000000000000000000000000000000000008000000000000000000000000000000000000000000400000000000000000000000000000000000000000000000000000000000000000000000000000000000000000000000020000000000000000000000000000000000001000000000000000000000000000020000000000000000000000000000000000000000000000000000000",
      "type": "0x2",
      "transactionHash": "0x14b2085abc9d8276bc9692c65b721cb30cd643b483e4a3853feb4ef457e2727b",
      "transactionIndex": "0x56",
      "blockHash": "0xb1b858ba0441658fda781372f81634bfdafb951bdf392e3b8ccac97c4ecf0812",
      "blockNumber": "0x1f0ae06",
      "gasUsed": "0x8436",
      "effectiveGasPrice": "0x450bd",
      "from": "0xabd10f0a61270d6977c5bfd9d4ec74d6d3bc96ab",
      "to": "0xd4f3ba2fe4183c32a498ad1ecf9fc55308fcc029",
      "contractAddress": null,
      "l1BaseFeeScalar": "0x8dd",
      "l1BlobBaseFee": "0x1",
      "l1BlobBaseFeeScalar": "0x101c12",
      "l1Fee": "0x1259fa6b8",
      "l1GasPrice": "0x50e10f59",
      "l1GasUsed": "0x640"
    }
  ],
  "libraries": [],
  "pending": [],
  "returns": {},
  "timestamp": 1751890161,
  "chain": 8453,
  "commit": "037c13e"
}