{
  "transactions": [
    {
      "hash": "0x5806907a4cd839fad6eaed668b4565382f4f38cd28a01cdec08667bffc3f76eb",
      "transactionType": "CALL",
      "contractName": "ProxyBase",
      "contractAddress": "0xd4f3ba2fe4183c32a498ad1ecf9fc55308fcc029",
      "function": "changeImplementation(address,bytes)",
      "arguments": [
        "0xC4b1221701ED9EeCbA01d5f52D60Cb95a9d492a2",
        "0x2afbbedb0000000000000000000000000000000000000000000000000000000000000020000000000000000000000000000000000000000000000000000000000000000200000000000000000000000000000000000000000000000000000000000000400000000000000000000000000000000000000000000000000000000000000000"
      ],
      "transaction": {
        "from": "0xabd10f0a61270d6977c5bfd9d4ec74d6d3bc96ab",
        "to": "0xd4f3ba2fe4183c32a498ad1ecf9fc55308fcc029",
        "gas": "0x15859",
        "value": "0x0",
        "input": "0x31124171000000000000000000000000c4b1221701ed9eecba01d5f52d60cb95a9d492a2000000000000000000000000000000000000000000000000000000000000004000000000000000000000000000000000000000000000000000000000000000842afbbedb000000000000000000000000000000000000000000000000000000000000002000000000000000000000000000000000000000000000000000000000000000020000000000000000000000000000000000000000000000000000000000000040000000000000000000000000000000000000000000000000000000000000000000000000000000000000000000000000000000000000000000000000",
        "nonce": "0x26",
        "chainId": "0x2105"
      },
      "additionalContracts": [],
      "isFixedGasLimit": false
    }
  ],
  "receipts": [
    {
      "status": "0x1",
      "cumulativeGasUsed": "0x13c8647",
      "logs": [
        {
          "address": "0xd4f3ba2fe4183c32a498ad1ecf9fc55308fcc029",
          "topics": [
            "0xbc7cd75a20ee27fd9adebab32041f755214dbc6bffa90cc0225b39da2e5c2d3b",
            "0x000000000000000000000000c4b1221701ed9eecba01d5f52d60cb95a9d492a2"
          ],
          "data": "0x",
          "blockHash": "0xad9c6493ecc6076e7889e6acd1ad2147f1569b394b46eab0140721f23b4bcd25",
          "blockNumber": "0x228c277",
          "blockTimestamp": "0x68dbe1d1",
          "transactionHash": "0x5806907a4cd839fad6eaed668b4565382f4f38cd28a01cdec08667bffc3f76eb",
          "transactionIndex": "0xa3",
          "logIndex": "0x196",
          "removed": false
        },
        {
          "address": "0x833589fcd6edb6e08f4c7c32d4f71b54bda02913",
          "topics": [
            "0x8c5be1e5ebec7d5bd14f71427d1e84f3dd0314c0f7b2291e5b200ac8c7c3b925",
            "0x000000000000000000000000d4f3ba2fe4183c32a498ad1ecf9fc55308fcc029",
            "0x000000000000000000000000a238dd80c259a72e81d7e4664a9801593f98d1c5"
          ],
          "data": "0x0000000000000000000000000000000000000000000000000000000000000000",
          "blockHash": "0xad9c6493ecc6076e7889e6acd1ad2147f1569b394b46eab0140721f23b4bcd25",
          "blockNumber": "0x228c277",
          "blockTimestamp": "0x68dbe1d1",
          "transactionHash": "0x5806907a4cd839fad6eaed668b4565382f4f38cd28a01cdec08667bffc3f76eb",
          "transactionIndex": "0xa3",
          "logIndex": "0x197",
          "removed": false
        },
        {
          "address": "0x833589fcd6edb6e08f4c7c32d4f71b54bda02913",
          "topics": [
            "0x8c5be1e5ebec7d5bd14f71427d1e84f3dd0314c0f7b2291e5b200ac8c7c3b925",
            "0x000000000000000000000000d4f3ba2fe4183c32a498ad1ecf9fc55308fcc029",
            "0x00000000000000000000000048b9aacc350b20147001f88821d31731ba4c30ed"
          ],
          "data": "0x0000000000000000000000000000000000000000000000000000000000000000",
          "blockHash": "0xad9c6493ecc6076e7889e6acd1ad2147f1569b394b46eab0140721f23b4bcd25",
          "blockNumber": "0x228c277",
          "blockTimestamp": "0x68dbe1d1",
          "transactionHash": "0x5806907a4cd839fad6eaed668b4565382f4f38cd28a01cdec08667bffc3f76eb",
          "transactionIndex": "0xa3",
          "logIndex": "0x198",
          "removed": false
        },
        {
          "address": "0xd4f3ba2fe4183c32a498ad1ecf9fc55308fcc029",
          "topics": [
            "0xc7f505b2f371ae2175ee4913f4499e1f2633a7b5936321eed1cdaeb6115181d2"
          ],
          "data": "0x0000000000000000000000000000000000000000000000000000000000000002",
          "blockHash": "0xad9c6493ecc6076e7889e6acd1ad2147f1569b394b46eab0140721f23b4bcd25",
          "blockNumber": "0x228c277",
          "blockTimestamp": "0x68dbe1d1",
          "transactionHash": "0x5806907a4cd839fad6eaed668b4565382f4f38cd28a01cdec08667bffc3f76eb",
          "transactionIndex": "0xa3",
          "logIndex": "0x199",
          "removed": false
        }
      ],
      "logsBloom": "0x00000000000000080000000000000000400000080000000000000000000000000000000000000000000000000000100000000000000000000000000000201000000000000000000000000000000002000000000000080000000000000000000100804000000000000000000000000000000000000000000000000000000000004000000000000000080800800000000000000400000081000000000000000000020000000000000000040000000080000000000000000000000000000000000000000020000000000000000000000000000000001005000000000000000000000010000000000000000000000000000000000000000000000000000001000000",
      "type": "0x2",
      "transactionHash": "0x5806907a4cd839fad6eaed668b4565382f4f38cd28a01cdec08667bffc3f76eb",
      "transactionIndex": "0xa3",
      "blockHash": "0xad9c6493ecc6076e7889e6acd1ad2147f1569b394b46eab0140721f23b4bcd25",
      "blockNumber": "0x228c277",
      "gasUsed": "0xf94e",
      "effectiveGasPrice": "0xd6da5d",
      "from": "0xabd10f0a61270d6977c5bfd9d4ec74d6d3bc96ab",
      "to": "0xd4f3ba2fe4183c32a498ad1ecf9fc55308fcc029",
      "contractAddress": null,
      "l1BaseFeeScalar": "0x8dd",
      "l1BlobBaseFee": "0x1",
      "l1BlobBaseFeeScalar": "0x101c12",
      "l1Fee": "0x16c646bbc",
      "l1GasPrice": "0x52b35f42",
      "l1GasUsed": "0x795"
    }
  ],
  "libraries": [],
  "pending": [],
  "returns": {},
  "timestamp": 1759240656044,
  "chain": 8453,
  "commit": "5e16dc2"
}