{
  "transactions": [
    {
      "hash": "0xeca9a844fe69a5f882a74657e2c28df24bb0bcd6c313c3ebbb26de0a30b68a79",
      "transactionType": "CALL",
      "contractName": "ProxyBase",
      "contractAddress": "0xd4f3ba2fe4183c32a498ad1ecf9fc55308fcc029",
      "function": "changeImplementation(address,bytes)",
      "arguments": [
        "0xF441cd47327af1A70A067Ff7f5cAd122bA1B7376",
        "0x"
      ],
      "transaction": {
        "from": "0xabd10f0a61270d6977c5bfd9d4ec74d6d3bc96ab",
        "to": "0xd4f3ba2fe4183c32a498ad1ecf9fc55308fcc029",
        "gas": "0xb69d",
        "value": "0x0",
        "input": "0x31124171000000000000000000000000f441cd47327af1a70a067ff7f5cad122ba1b737600000000000000000000000000000000000000000000000000000000000000400000000000000000000000000000000000000000000000000000000000000000",
        "nonce": "0xe",
        "chainId": "0x2105"
      },
      "additionalContracts": [],
      "isFixedGasLimit": false
    }
  ],
  "receipts": [
    {
      "status": "0x1",
      "cumulativeGasUsed": "0x22de9a3",
      "logs": [
        {
          "address": "0xd4f3ba2fe4183c32a498ad1ecf9fc55308fcc029",
          "topics": [
            "0xbc7cd75a20ee27fd9adebab32041f755214dbc6bffa90cc0225b39da2e5c2d3b",
            "0x000000000000000000000000f441cd47327af1a70a067ff7f5cad122ba1b7376"
          ],
          "data": "0x",
          "blockHash": "0xe0a52a1674111ba2877f8fc1c7c5263e62e96e8177d754e489f0067fb737a0ce",
          "blockNumber": "0x1ea1fbe",
          "blockTimestamp": "0x685e9c5f",
          "transactionHash": "0xeca9a844fe69a5f882a74657e2c28df24bb0bcd6c313c3ebbb26de0a30b68a79",
          "transactionIndex": "0xbf",
          "logIndex": "0x263",
          "removed": false
        }
      ],
      "logsBloom": "0x00000000000000000000000000000000400000000000000008000000000000000000000000000000000000000000000020000000000000000000000000000000000000000000000000000000000002000000000000000000000000000000000100000000000000000000000000000000000000000000000000000000000000000000000000000000000000000000000000000400000000004000000000000000000000000000000000000000000000000000000000000000000000000000000000000020000000000000000000000000000000000001000000000000000000000000000000000000000000000000000000000000000000000000000000000000",
      "type": "0x2",
      "transactionHash": "0xeca9a844fe69a5f882a74657e2c28df24bb0bcd6c313c3ebbb26de0a30b68a79",
      "transactionIndex": "0xbf",
      "blockHash": "0xe0a52a1674111ba2877f8fc1c7c5263e62e96e8177d754e489f0067fb737a0ce",
      "blockNumber": "0x1ea1fbe",
      "gasUsed": "0x8436",
      "effectiveGasPrice": "0x16f9ca",
      "from": "0xabd10f0a61270d6977c5bfd9d4ec74d6d3bc96ab",
      "to": "0xd4f3ba2fe4183c32a498ad1ecf9fc55308fcc029",
      "contractAddress": null,
      "l1BaseFeeScalar": "0x8dd",
      "l1BlobBaseFee": "0x1",
      "l1BlobBaseFeeScalar": "0x101c12",
      "l1Fee": "0x10f479b48",
      "l1GasPrice": "0x4ab976b4",
      "l1GasUsed": "0x640"
    }
  ],
  "libraries": [],
  "pending": [],
  "returns": {},
  "timestamp": 1751030881,
  "chain": 8453,
  "commit": "040b0a8"
}