{
  "transactions": [
    {
      "hash": "0x9ae580a061d3e64599acc805ecbb67f717e213ea5f02e3d6aab7dad6036d0ff1",
      "transactionType": "CALL",
      "contractName": null,
      "contractAddress": "0x5789500c258fb5cd222ff83f07576e4df3b5401e",
      "function": "changeImplementation(address,bytes)",
      "arguments": [
        "0xE879848fF873eF67CC6Bdfb21D275236548B2a09",
        "0x2afbbedb00000000000000000000000000000000000000000000000000000000000000200000000000000000000000000000000000000000000000000000000000000002000000000000000000000000000000000000000000000000000000000000004000000000000000000000000000000000000000000000000000000000000000010000000000000000000000002deedce96f1b40301b7ca1f8877286f73de87cf3"
      ],
      "transaction": {
        "from": "0xfab1e0f009a77a60dc551c2e768dfb3fadc40827",
        "to": "0x5789500c258fb5cd222ff83f07576e4df3b5401e",
        "gas": "0x18cdb",
        "value": "0x0",
        "input": "0x31124171000000000000000000000000e879848ff873ef67cc6bdfb21d275236548b2a09000000000000000000000000000000000000000000000000000000000000004000000000000000000000000000000000000000000000000000000000000000a42afbbedb00000000000000000000000000000000000000000000000000000000000000200000000000000000000000000000000000000000000000000000000000000002000000000000000000000000000000000000000000000000000000000000004000000000000000000000000000000000000000000000000000000000000000010000000000000000000000002deedce96f1b40301b7ca1f8877286f73de87cf300000000000000000000000000000000000000000000000000000000",
        "nonce": "0x132",
        "chainId": "0x66eee"
      },
      "additionalContracts": [],
      "isFixedGasLimit": false
    }
  ],
  "receipts": [
    {
      "status": "0x1",
      "cumulativeGasUsed": "0x189de4",
      "logs": [
        {
          "address": "0x5789500c258fb5cd222ff83f07576e4df3b5401e",
          "topics": [
            "0xbc7cd75a20ee27fd9adebab32041f755214dbc6bffa90cc0225b39da2e5c2d3b",
            "0x000000000000000000000000e879848ff873ef67cc6bdfb21d275236548b2a09"
          ],
          "data": "0x",
          "blockHash": "0xf021adeadecb9135f4fc6a0307249450e6ff7d2d1fc1cd8cb5f17e1126fc9962",
          "blockNumber": "0xbc8b5d3",
          "transactionHash": "0x9ae580a061d3e64599acc805ecbb67f717e213ea5f02e3d6aab7dad6036d0ff1",
          "transactionIndex": "0x2",
          "logIndex": "0x2",
          "removed": false
        },
        {
          "address": "0x75faf114eafb1bdbe2f0316df893fd58ce46aa4d",
          "topics": [
            "0x8c5be1e5ebec7d5bd14f71427d1e84f3dd0314c0f7b2291e5b200ac8c7c3b925",
            "0x0000000000000000000000005789500c258fb5cd222ff83f07576e4df3b5401e",
            "0x0000000000000000000000000da86dc3f9b71f84a0e97b0e2291e50b7a5df10f"
          ],
          "data": "0x0000000000000000000000000000000000000000000000000000000000000000",
          "blockHash": "0xf021adeadecb9135f4fc6a0307249450e6ff7d2d1fc1cd8cb5f17e1126fc9962",
          "blockNumber": "0xbc8b5d3",
          "transactionHash": "0x9ae580a061d3e64599acc805ecbb67f717e213ea5f02e3d6aab7dad6036d0ff1",
          "transactionIndex": "0x2",
          "logIndex": "0x3",
          "removed": false
        },
        {
          "address": "0x75faf114eafb1bdbe2f0316df893fd58ce46aa4d",
          "topics": [
            "0x8c5be1e5ebec7d5bd14f71427d1e84f3dd0314c0f7b2291e5b200ac8c7c3b925",
            "0x0000000000000000000000005789500c258fb5cd222ff83f07576e4df3b5401e",
            "0x0000000000000000000000002deedce96f1b40301b7ca1f8877286f73de87cf3"
          ],
          "data": "0x0000000000000000000000000000000000000000000000000000000000000000",
          "blockHash": "0xf021adeadecb9135f4fc6a0307249450e6ff7d2d1fc1cd8cb5f17e1126fc9962",
          "blockNumber": "0xbc8b5d3",
          "transactionHash": "0x9ae580a061d3e64599acc805ecbb67f717e213ea5f02e3d6aab7dad6036d0ff1",
          "transactionIndex": "0x2",
          "logIndex": "0x4",
          "removed": false
        },
        {
          "address": "0x5789500c258fb5cd222ff83f07576e4df3b5401e",
          "topics": [
            "0xc7f505b2f371ae2175ee4913f4499e1f2633a7b5936321eed1cdaeb6115181d2"
          ],
          "data": "0x0000000000000000000000000000000000000000000000000000000000000002",
          "blockHash": "0xf021adeadecb9135f4fc6a0307249450e6ff7d2d1fc1cd8cb5f17e1126fc9962",
          "blockNumber": "0xbc8b5d3",
          "transactionHash": "0x9ae580a061d3e64599acc805ecbb67f717e213ea5f02e3d6aab7dad6036d0ff1",
          "transactionIndex": "0x2",
          "logIndex": "0x5",
          "removed": false
        }
      ],
      "logsBloom": "0x00000000000000000000000000000000400000000000000000000000000001000000000000000000000400900000000000000000000000000000000000200004800000000000000000000000000402000000000000000000000000000000000000000000000000000000000000000000000000000000000000000080000000000000000000000000004800000000000000000400000080000000000000000000020000000000000000000000000100000000000000000000000000000000200000000020400000000000020000000000000000000004000000000000200000000010000800000000000000000000000000000000000000000100000000000004",
      "type": "0x2",
      "transactionHash": "0x9ae580a061d3e64599acc805ecbb67f717e213ea5f02e3d6aab7dad6036d0ff1",
      "transactionIndex": "0x2",
      "blockHash": "0xf021adeadecb9135f4fc6a0307249450e6ff7d2d1fc1cd8cb5f17e1126fc9962",
      "blockNumber": "0xbc8b5d3",
      "gasUsed": "0x10458",
      "effectiveGasPrice": "0x5f5e100",
      "from": "0xfab1e0f009a77a60dc551c2e768dfb3fadc40827",
      "to": "0x5789500c258fb5cd222ff83f07576e4df3b5401e",
      "contractAddress": null,
      "gasUsedForL1": "0x0",
      "l1BlockNumber": "0x8d77e8",
      "timeboosted": false
    }
  ],
  "libraries": [],
  "pending": [],
  "returns": {},
  "timestamp": 1758735740439,
  "chain": 421614,
  "commit": "f6b0aeb"
}