{
  "transactions": [
    {
      "hash": "0xceaf774e027b0914207ae5c0c8eb07add1ff4ca7c68945d0f42ffd6a82af0bf1",
      "transactionType": "CALL",
      "contractName": null,
      "contractAddress": "0x5789500c258fb5cd222ff83f07576e4df3b5401e",
      "function": "changeImplementation(address,bytes)",
      "arguments": [
        "0x2CeFaFcA1eBba884718cB512B9C5D18061f2152A",
        "0x"
      ],
      "transaction": {
        "from": "0xfab1e0f009a77a60dc551c2e768dfb3fadc40827",
        "to": "0x5789500c258fb5cd222ff83f07576e4df3b5401e",
        "gas": "0xb64b",
        "value": "0x0",
        "input": "0x311241710000000000000000000000002cefafca1ebba884718cb512b9c5d18061f2152a00000000000000000000000000000000000000000000000000000000000000400000000000000000000000000000000000000000000000000000000000000000",
        "nonce": "0x10e",
        "chainId": "0x66eee"
      },
      "additionalContracts": [],
      "isFixedGasLimit": false
    }
  ],
  "receipts": [
    {
      "status": "0x1",
      "cumulativeGasUsed": "0x24b6e",
      "logs": [
        {
          "address": "0x5789500c258fb5cd222ff83f07576e4df3b5401e",
          "topics": [
            "0xbc7cd75a20ee27fd9adebab32041f755214dbc6bffa90cc0225b39da2e5c2d3b",
            "0x0000000000000000000000002cefafca1ebba884718cb512b9c5d18061f2152a"
          ],
          "data": "0x",
          "blockHash": "0xdc0d0cbf174217c6b2fdc3f7bfaaab1de484ba8f64df3f674db9dcb8e33f05b4",
          "blockNumber": "0xa246b57",
          "transactionHash": "0xceaf774e027b0914207ae5c0c8eb07add1ff4ca7c68945d0f42ffd6a82af0bf1",
          "transactionIndex": "0x2",
          "logIndex": "0x4",
          "removed": false
        }
      ],
      "logsBloom": "0x00000000000000000000000000000000400000000000000000000000000000000000000000000000000000100000000000000000000000000000000000000000000000000000000000000000000002000000000000000000040000000000000000000000000000000000000080000000000000000000000000000000000000000000000000000000000008000000000000000000000000000000000000000000000000000000000000000000000000000000000000000000000000000000000000000020400000000000020000000000000000000000000000000000000000000000000000000000000000000000000000000000000000000000000000000000",
      "type": "0x2",
      "transactionHash": "0xceaf774e027b0914207ae5c0c8eb07add1ff4ca7c68945d0f42ffd6a82af0bf1",
      "transactionIndex": "0x2",
      "blockHash": "0xdc0d0cbf174217c6b2fdc3f7bfaaab1de484ba8f64df3f674db9dcb8e33f05b4",
      "blockNumber": "0xa246b57",
      "gasUsed": "0x899b",
      "effectiveGasPrice": "0x5f5e100",
      "from": "0xfab1e0f009a77a60dc551c2e768dfb3fadc40827",
      "to": "0x5789500c258fb5cd222ff83f07576e4df3b5401e",
      "contractAddress": null,
      "gasUsedForL1": "0x565",
      "l1BlockNumber": "0x849c90",
      "timeboosted": false
    }
  ],
  "libraries": [],
  "pending": [],
  "returns": {},
  "timestamp": 1751636800,
  "chain": 421614,
  "commit": "34620c9"
}