{
  "transactions": [
    {
      "hash": "0x424011acdc841aba819b5f332882eac2c7728a7743e3930cc9bfb74e04534c43",
      "transactionType": "CALL",
      "contractName": null,
      "contractAddress": "0x3a1e99a396607b822a68b194ee856d05fc38d848",
      "function": "changeImplementation(address,bytes)",
      "arguments": [
        "0xfB6F22B331C402B1F7130053F60a7d1b57AD00e2",
        "0x8e32d1b200000000000000000000000000000000000000000000000000000000000000200000000000000000000000000000000000000000000000000000000000000002000000000000000000000000000000000000000000000000000000000000004000000000000000000000000000000000000000000000000000000000000000010000000000000000000000000000000000000000000000000000000000066eee"
      ],
      "transaction": {
        "from": "0xfab1e0f009a77a60dc551c2e768dfb3fadc40827",
        "to": "0x3a1e99a396607b822a68b194ee856d05fc38d848",
        "gas": "0x13632",
        "value": "0x0",
        "input": "0x31124171000000000000000000000000fb6f22b331c402b1f7130053f60a7d1b57ad00e2000000000000000000000000000000000000000000000000000000000000004000000000000000000000000000000000000000000000000000000000000000a48e32d1b200000000000000000000000000000000000000000000000000000000000000200000000000000000000000000000000000000000000000000000000000000002000000000000000000000000000000000000000000000000000000000000004000000000000000000000000000000000000000000000000000000000000000010000000000000000000000000000000000000000000000000000000000066eee00000000000000000000000000000000000000000000000000000000",
        "nonce": "0xd5",
        "chainId": "0x1b59"
      },
      "additionalContracts": [],
      "isFixedGasLimit": false
    }
  ],
  "receipts": [
    {
      "status": "0x1",
      "cumulativeGasUsed": "0x26734",
      "logs": [
        {
          "address": "0x3a1e99a396607b822a68b194ee856d05fc38d848",
          "topics": [
            "0xbc7cd75a20ee27fd9adebab32041f755214dbc6bffa90cc0225b39da2e5c2d3b",
            "0x000000000000000000000000fb6f22b331c402b1f7130053f60a7d1b57ad00e2"
          ],
          "data": "0x",
          "blockHash": "0xdc0bbdca8f018879d7d80b70a6c4f0272d8552d0a48175ef5279cc8606ad4f36",
          "blockNumber": "0xc52b49",
          "transactionHash": "0x424011acdc841aba819b5f332882eac2c7728a7743e3930cc9bfb74e04534c43",
          "transactionIndex": "0x0",
          "logIndex": "0x1",
          "removed": false
        },
        {
          "address": "0x4bc32034caccc9b7e02536945edbc286bacba073",
          "topics": [
            "0x8c5be1e5ebec7d5bd14f71427d1e84f3dd0314c0f7b2291e5b200ac8c7c3b925",
            "0x0000000000000000000000003a1e99a396607b822a68b194ee856d05fc38d848",
            "0x0000000000000000000000006c533f7fe93fae114d0954697069df33c9b74fd7"
          ],
          "data": "0x0000000000000000000000000000000000000000000000000000000000000000",
          "blockHash": "0xdc0bbdca8f018879d7d80b70a6c4f0272d8552d0a48175ef5279cc8606ad4f36",
          "blockNumber": "0xc52b49",
          "transactionHash": "0x424011acdc841aba819b5f332882eac2c7728a7743e3930cc9bfb74e04534c43",
          "transactionIndex": "0x0",
          "logIndex": "0x2",
          "removed": false
        },
        {
          "address": "0x1de70f3e971b62a0707da18100392af14f7fb677",
          "topics": [
            "0x8c5be1e5ebec7d5bd14f71427d1e84f3dd0314c0f7b2291e5b200ac8c7c3b925",
            "0x0000000000000000000000003a1e99a396607b822a68b194ee856d05fc38d848",
            "0x0000000000000000000000006c533f7fe93fae114d0954697069df33c9b74fd7"
          ],
          "data": "0x0000000000000000000000000000000000000000000000000000000000000000",
          "blockHash": "0xdc0bbdca8f018879d7d80b70a6c4f0272d8552d0a48175ef5279cc8606ad4f36",
          "blockNumber": "0xc52b49",
          "transactionHash": "0x424011acdc841aba819b5f332882eac2c7728a7743e3930cc9bfb74e04534c43",
          "transactionIndex": "0x0",
          "logIndex": "0x3",
          "removed": false
        },
        {
          "address": "0x3a1e99a396607b822a68b194ee856d05fc38d848",
          "topics": [
            "0xc7f505b2f371ae2175ee4913f4499e1f2633a7b5936321eed1cdaeb6115181d2"
          ],
          "data": "0x0000000000000000000000000000000000000000000000000000000000000002",
          "blockHash": "0xdc0bbdca8f018879d7d80b70a6c4f0272d8552d0a48175ef5279cc8606ad4f36",
          "blockNumber": "0xc52b49",
          "transactionHash": "0x424011acdc841aba819b5f332882eac2c7728a7743e3930cc9bfb74e04534c43",
          "transactionIndex": "0x0",
          "logIndex": "0x4",
          "removed": false
        }
      ],
      "logsBloom": "0x00080000000000000000000004000000400000000020000000000400000000000000000010000000000000000000000000000000000000000000000000200000000000000000000040000000000002000000000000000000000000000000000000000000000000000000000000000000000000000000000010000000100000080000000000000000020800080000000000000000000080000001000000000000020000000000000000000000000010000020000000000000000000000000000000000060400000000000000000000000000000000004000000000000000000000010000000000000000000000000100000000000000000000040000000000000",
      "type": "0x2",
      "transactionHash": "0x424011acdc841aba819b5f332882eac2c7728a7743e3930cc9bfb74e04534c43",
      "transactionIndex": "0x0",
      "blockHash": "0xdc0bbdca8f018879d7d80b70a6c4f0272d8552d0a48175ef5279cc8606ad4f36",
      "blockNumber": "0xc52b49",
      "gasUsed": "0xe094",
      "effectiveGasPrice": "0x750c8a0b2",
      "from": "0xfab1e0f009a77a60dc551c2e768dfb3fadc40827",
      "to": "0x3a1e99a396607b822a68b194ee856d05fc38d848",
      "contractAddress": null
    }
  ],
  "libraries": [],
  "pending": [],
  "returns": {},
  "timestamp": 1758734745637,
  "chain": 7001,
  "commit": "f6b0aeb"
}