{
  "transactions": [
    {
      "hash": "0x92820d4d7798cc1d3a2f7f3053e9930f35c646dc2c3d2b40087c501d7a006280",
      "transactionType": "CALL",
      "contractName": null,
      "contractAddress": "0x3a1e99a396607b822a68b194ee856d05fc38d848",
      "function": "changeImplementation(address,bytes)",
      "arguments": [
        "0x23C2BEea3B04cA176D5bebc093F3adac912ABd6d",
        "0xb54d6ef40000000000000000000000000000000000000000000000000000000000000020000000000000000000000000fab1e0f009a77a60dc551c2e768dfb3fadc4082700000000000000000000000000000000000000000000000000000000000000a000000000000000000000000000000000000000000000000000000000000000e000000000000000000000000000000000000000000000000000000000000001200000000000000000000000000000000000000000000000000000000000000160000000000000000000000000000000000000000000000000000000000000000100000000000000000000000000000000000000000000000000000000000000000000000000000000000000000000000000000000000000000000000000000001000000000000000000000000000000000000000000000000000000000000000000000000000000000000000000000000000000000000000000000000000000010000000000000000000000004bc32034caccc9b7e02536945edbc286bacba07300000000000000000000000000000000000000000000000000000000000000010000000000000000000000002deedce96f1b40301b7ca1f8877286f73de87cf3"
      ],
      "transaction": {
        "from": "0xfab1e0f009a77a60dc551c2e768dfb3fadc40827",
        "to": "0x3a1e99a396607b822a68b194ee856d05fc38d848",
        "gas": "0x3ceca",
        "value": "0x0",
        "input": "0x3112417100000000000000000000000023c2beea3b04ca176d5bebc093f3adac912abd6d000000000000000000000000000000000000000000000000000000000000004000000000000000000000000000000000000000000000000000000000000001c4b54d6ef40000000000000000000000000000000000000000000000000000000000000020000000000000000000000000fab1e0f009a77a60dc551c2e768dfb3fadc4082700000000000000000000000000000000000000000000000000000000000000a000000000000000000000000000000000000000000000000000000000000000e000000000000000000000000000000000000000000000000000000000000001200000000000000000000000000000000000000000000000000000000000000160000000000000000000000000000000000000000000000000000000000000000100000000000000000000000000000000000000000000000000000000000000000000000000000000000000000000000000000000000000000000000000000001000000000000000000000000000000000000000000000000000000000000000000000000000000000000000000000000000000000000000000000000000000010000000000000000000000004bc32034caccc9b7e02536945edbc286bacba07300000000000000000000000000000000000000000000000000000000000000010000000000000000000000002deedce96f1b40301b7ca1f8877286f73de87cf300000000000000000000000000000000000000000000000000000000",
        "nonce": "0xb5",
        "chainId": "0x1b59"
      },
      "additionalContracts": [],
      "isFixedGasLimit": false
    }
  ],
  "receipts": [
    {
      "status": "0x1",
      "cumulativeGasUsed": "0x181e7c",
      "logs": [
        {
          "address": "0x3a1e99a396607b822a68b194ee856d05fc38d848",
          "topics": [
            "0xbc7cd75a20ee27fd9adebab32041f755214dbc6bffa90cc0225b39da2e5c2d3b",
            "0x00000000000000000000000023c2beea3b04ca176d5bebc093f3adac912abd6d"
          ],
          "data": "0x",
          "blockHash": "0xae29df7374d98cf16860d6c01431ca958268f679b198365c9f5fa877ee117ef8",
          "blockNumber": "0xa93477",
          "transactionHash": "0x92820d4d7798cc1d3a2f7f3053e9930f35c646dc2c3d2b40087c501d7a006280",
          "transactionIndex": "0x0",
          "logIndex": "0xe",
          "removed": false
        },
        {
          "address": "0x3a1e99a396607b822a68b194ee856d05fc38d848",
          "topics": [
            "0x4ffd725fc4a22075e9ec71c59edf9c38cdeb588a91b24fc5b61388c5be41282b",
            "0x000000000000000000000000fab1e0f009a77a60dc551c2e768dfb3fadc40827"
          ],
          "data": "0x",
          "blockHash": "0xae29df7374d98cf16860d6c01431ca958268f679b198365c9f5fa877ee117ef8",
          "blockNumber": "0xa93477",
          "transactionHash": "0x92820d4d7798cc1d3a2f7f3053e9930f35c646dc2c3d2b40087c501d7a006280",
          "transactionIndex": "0x0",
          "logIndex": "0xf",
          "removed": false
        },
        {
          "address": "0x3a1e99a396607b822a68b194ee856d05fc38d848",
          "topics": [
            "0xfb1e6d3925a0e12f0fb4271b5a03fcb357c50f924d389986c6f59885308861ec",
            "0x0000000000000000000000002deedce96f1b40301b7ca1f8877286f73de87cf3"
          ],
          "data": "0x000000000000000000000000000000000000000000000000000000000000000000000000000000000000000000000000000000000000000000000000000000000000000000000000000000004bc32034caccc9b7e02536945edbc286bacba073",
          "blockHash": "0xae29df7374d98cf16860d6c01431ca958268f679b198365c9f5fa877ee117ef8",
          "blockNumber": "0xa93477",
          "transactionHash": "0x92820d4d7798cc1d3a2f7f3053e9930f35c646dc2c3d2b40087c501d7a006280",
          "transactionIndex": "0x0",
          "logIndex": "0x10",
          "removed": false
        },
        {
          "address": "0x4bc32034caccc9b7e02536945edbc286bacba073",
          "topics": [
            "0x8c5be1e5ebec7d5bd14f71427d1e84f3dd0314c0f7b2291e5b200ac8c7c3b925",
            "0x0000000000000000000000003a1e99a396607b822a68b194ee856d05fc38d848",
            "0x0000000000000000000000006c533f7fe93fae114d0954697069df33c9b74fd7"
          ],
          "data": "0xffffffffffffffffffffffffffffffffffffffffffffffffffffffffffffffff",
          "blockHash": "0xae29df7374d98cf16860d6c01431ca958268f679b198365c9f5fa877ee117ef8",
          "blockNumber": "0xa93477",
          "transactionHash": "0x92820d4d7798cc1d3a2f7f3053e9930f35c646dc2c3d2b40087c501d7a006280",
          "transactionIndex": "0x0",
          "logIndex": "0x11",
          "removed": false
        },
        {
          "address": "0x1de70f3e971b62a0707da18100392af14f7fb677",
          "topics": [
            "0x8c5be1e5ebec7d5bd14f71427d1e84f3dd0314c0f7b2291e5b200ac8c7c3b925",
            "0x0000000000000000000000003a1e99a396607b822a68b194ee856d05fc38d848",
            "0x0000000000000000000000006c533f7fe93fae114d0954697069df33c9b74fd7"
          ],
          "data": "0xffffffffffffffffffffffffffffffffffffffffffffffffffffffffffffffff",
          "blockHash": "0xae29df7374d98cf16860d6c01431ca958268f679b198365c9f5fa877ee117ef8",
          "blockNumber": "0xa93477",
          "transactionHash": "0x92820d4d7798cc1d3a2f7f3053e9930f35c646dc2c3d2b40087c501d7a006280",
          "transactionIndex": "0x0",
          "logIndex": "0x12",
          "removed": false
        },
        {
          "address": "0x4bc32034caccc9b7e02536945edbc286bacba073",
          "topics": [
            "0x8c5be1e5ebec7d5bd14f71427d1e84f3dd0314c0f7b2291e5b200ac8c7c3b925",
            "0x0000000000000000000000003a1e99a396607b822a68b194ee856d05fc38d848",
            "0x0000000000000000000000006c533f7fe93fae114d0954697069df33c9b74fd7"
          ],
          "data": "0xffffffffffffffffffffffffffffffffffffffffffffffffffffffffffffffff",
          "blockHash": "0xae29df7374d98cf16860d6c01431ca958268f679b198365c9f5fa877ee117ef8",
          "blockNumber": "0xa93477",
          "transactionHash": "0x92820d4d7798cc1d3a2f7f3053e9930f35c646dc2c3d2b40087c501d7a006280",
          "transactionIndex": "0x0",
          "logIndex": "0x13",
          "removed": false
        },
        {
          "address": "0x1de70f3e971b62a0707da18100392af14f7fb677",
          "topics": [
            "0x8c5be1e5ebec7d5bd14f71427d1e84f3dd0314c0f7b2291e5b200ac8c7c3b925",
            "0x0000000000000000000000003a1e99a396607b822a68b194ee856d05fc38d848",
            "0x0000000000000000000000006c533f7fe93fae114d0954697069df33c9b74fd7"
          ],
          "data": "0xffffffffffffffffffffffffffffffffffffffffffffffffffffffffffffffff",
          "blockHash": "0xae29df7374d98cf16860d6c01431ca958268f679b198365c9f5fa877ee117ef8",
          "blockNumber": "0xa93477",
          "transactionHash": "0x92820d4d7798cc1d3a2f7f3053e9930f35c646dc2c3d2b40087c501d7a006280",
          "transactionIndex": "0x0",
          "logIndex": "0x14",
          "removed": false
        },
        {
          "address": "0x3a1e99a396607b822a68b194ee856d05fc38d848",
          "topics": [
            "0xc7f505b2f371ae2175ee4913f4499e1f2633a7b5936321eed1cdaeb6115181d2"
          ],
          "data": "0x0000000000000000000000000000000000000000000000000000000000000001",
          "blockHash": "0xae29df7374d98cf16860d6c01431ca958268f679b198365c9f5fa877ee117ef8",
          "blockNumber": "0xa93477",
          "transactionHash": "0x92820d4d7798cc1d3a2f7f3053e9930f35c646dc2c3d2b40087c501d7a006280",
          "transactionIndex": "0x0",
          "logIndex": "0x15",
          "removed": false
        }
      ],
      "logsBloom": "0x00080082000000000000000024000000400000000020000000000400000000000000000010000000000000000000000000000000000000000000000000200000000000000000004040000000000402000000000000000000000000000000000000000000000000000000000000000000000000000000000001000000100000080000000000000000020800000000000000000400000080000001000000000000020000000000000000000000000010000020000000000000000000000002000000000060400000000000000000000000008000000084000000000000000000010011000800000000000000000000000000000000000000000240000000000000",
      "type": "0x2",
      "transactionHash": "0x92820d4d7798cc1d3a2f7f3053e9930f35c646dc2c3d2b40087c501d7a006280",
      "transactionIndex": "0x0",
      "blockHash": "0xae29df7374d98cf16860d6c01431ca958268f679b198365c9f5fa877ee117ef8",
      "blockNumber": "0xa93477",
      "gasUsed": "0x2c1bc",
      "effectiveGasPrice": "0x12d270820",
      "from": "0xfab1e0f009a77a60dc551c2e768dfb3fadc40827",
      "to": "0x3a1e99a396607b822a68b194ee856d05fc38d848",
      "contractAddress": null
    }
  ],
  "libraries": [],
  "pending": [],
  "returns": {},
  "timestamp": 1750859606,
  "chain": 7001,
  "commit": "6391963"
}