{
  "transactions": [
    {
      "hash": "0x290b0763dbc54fd5ad879ddb839bde46dd2e212da456191aa6be4b2ad9265581",
      "transactionType": "CALL",
      "contractName": null,
      "contractAddress": "0x3a1e99a396607b822a68b194ee856d05fc38d848",
      "function": "changeImplementation(address,bytes)",
      "arguments": [
        "0x62B98289A77F4Fee03d5F77a0060863D74e58DCC",
        "0x"
      ],
      "transaction": {
        "from": "0xfab1e0f009a77a60dc551c2e768dfb3fadc40827",
        "to": "0x3a1e99a396607b822a68b194ee856d05fc38d848",
        "gas": "0xb6a9",
        "value": "0x0",
        "input": "0x3112417100000000000000000000000062b98289a77f4fee03d5f77a0060863d74e58dcc00000000000000000000000000000000000000000000000000000000000000400000000000000000000000000000000000000000000000000000000000000000",
        "nonce": "0xd7",
        "chainId": "0x1b59"
      },
      "additionalContracts": [],
      "isFixedGasLimit": false
    }
  ],
  "receipts": [
    {
      "status": "0x1",
      "cumulativeGasUsed": "0x3917f",
      "logs": [
        {
          "address": "0x3a1e99a396607b822a68b194ee856d05fc38d848",
          "topics": [
            "0xbc7cd75a20ee27fd9adebab32041f755214dbc6bffa90cc0225b39da2e5c2d3b",
            "0x00000000000000000000000062b98289a77f4fee03d5f77a0060863d74e58dcc"
          ],
          "data": "0x",
          "blockHash": "0x5f5e4f8f226aaa5b5e32113420833ed585f7cfe6dbd959ac3ec181bb04fb6c89",
          "blockNumber": "0xc5730c",
          "transactionHash": "0x290b0763dbc54fd5ad879ddb839bde46dd2e212da456191aa6be4b2ad9265581",
          "transactionIndex": "0x0",
          "logIndex": "0x2",
          "removed": false
        }
      ],
      "logsBloom": "0x00000000000000000000000000000000400000000000000000000400000000000000000000400000000000000000000000000000000000000000000000000000000000000000000000000000000002000000000000000000000000000000000000000000000000000000000000000000000000000000000000000000000000000000000000000000020000000000000000000000000000000000000000000000000000000000000000000000000000000000000000000000000000000000200000000020000000000000000000000000000000000000000000000000000000000000000000000000000000000000000000000400000000000040000000000000",
      "type": "0x2",
      "transactionHash": "0x290b0763dbc54fd5ad879ddb839bde46dd2e212da456191aa6be4b2ad9265581",
      "transactionIndex": "0x0",
      "blockHash": "0x5f5e4f8f226aaa5b5e32113420833ed585f7cfe6dbd959ac3ec181bb04fb6c89",
      "blockNumber": "0xc5730c",
      "gasUsed": "0x843f",
      "effectiveGasPrice": "0x8e7ab50c7",
      "from": "0xfab1e0f009a77a60dc551c2e768dfb3fadc40827",
      "to": "0x3a1e99a396607b822a68b194ee856d05fc38d848",
      "contractAddress": null
    }
  ],
  "libraries": [],
  "pending": [],
  "returns": {},
  "timestamp": 1758813494725,
  "chain": 7001,
  "commit": "24ed502"
}