{
  "transactions": [
    {
      "hash": "0x71319c2259bb9719258deb3e866c77641c38a50d4e29366f042f1effc9835e55",
      "transactionType": "CALL",
      "contractName": null,
      "contractAddress": "0x3a1e99a396607b822a68b194ee856d05fc38d848",
      "function": "changeImplementation(address,bytes)",
      "arguments": [
        "0x599fA4C6952ef77d959DD7007b2C2e9183edAe3F",
        "0x"
      ],
      "transaction": {
        "from": "0xfab1e0f009a77a60dc551c2e768dfb3fadc40827",
        "to": "0x3a1e99a396607b822a68b194ee856d05fc38d848",
        "gas": "0xb6a9",
        "value": "0x0",
        "input": "0x31124171000000000000000000000000599fa4c6952ef77d959dd7007b2c2e9183edae3f00000000000000000000000000000000000000000000000000000000000000400000000000000000000000000000000000000000000000000000000000000000",
        "nonce": "0xbd",
        "chainId": "0x1b59"
      },
      "additionalContracts": [],
      "isFixedGasLimit": false
    }
  ],
  "receipts": [
    {
      "status": "0x1",
      "cumulativeGasUsed": "0x20adf",
      "logs": [
        {
          "address": "0x3a1e99a396607b822a68b194ee856d05fc38d848",
          "topics": [
            "0xbc7cd75a20ee27fd9adebab32041f755214dbc6bffa90cc0225b39da2e5c2d3b",
            "0x000000000000000000000000599fa4c6952ef77d959dd7007b2c2e9183edae3f"
          ],
          "data": "0x",
          "blockHash": "0x5c0d5585871b855131288ec9a4c6ea9d48b32fae2998d1afd3ffbe53e6ea4118",
          "blockNumber": "0xab7002",
          "transactionHash": "0x71319c2259bb9719258deb3e866c77641c38a50d4e29366f042f1effc9835e55",
          "transactionIndex": "0x0",
          "logIndex": "0x1",
          "removed": false
        }
      ],
      "logsBloom": "0x40000000000000000000000010000000400000000000000000000400000000000000000000000000000000000000000000000000000000000000000000000000000000000040000000000000000002000000000000000000000000000000000000000000000000000000000000000000000000000000000000000000000000000000000000000000020000000000000000000000000000000000000000000000000000000000000000000000000000000000000000000000000000000000000000000020000000000000000000000000000000000000000000000000000000000000000000000000000000000000000000000000000000000040000000000000",
      "type": "0x2",
      "transactionHash": "0x71319c2259bb9719258deb3e866c77641c38a50d4e29366f042f1effc9835e55",
      "transactionIndex": "0x0",
      "blockHash": "0x5c0d5585871b855131288ec9a4c6ea9d48b32fae2998d1afd3ffbe53e6ea4118",
      "blockNumber": "0xab7002",
      "gasUsed": "0x843f",
      "effectiveGasPrice": "0xec8e51b00",
      "from": "0xfab1e0f009a77a60dc551c2e768dfb3fadc40827",
      "to": "0x3a1e99a396607b822a68b194ee856d05fc38d848",
      "contractAddress": null
    }
  ],
  "libraries": [],
  "pending": [],
  "returns": {},
  "timestamp": 1751481867,
  "chain": 7001,
  "commit": "e700925"
}